:020000040800F2
:1000000000000220FD030008E9030008E9030008DE
:10001000E9030008E9030008E90300080000000004
:10002000000000000000000000000000E9030008DC
:10003000E903000800000000E9030008E9030008E4
:1000400000000000000000000000000000000000B0
:1000500000000000000000000000000000000000A0
:100060000000000000000000000000000000000090
:100070000000000000000000000000000000000080
:100080000000000000000000000000000000000070
:100090000000000000000000000000000000000060
:1000A0000000000000000000000000000000000050
:1000B0000000000000000000000000000000000040
:1000C0000000000000000000000000000000000030
:1000D0000000000000000000000000000000000020
:1000E0000000000000000000000000000000000010
:1000F0000000000000000000000000000000000000
:1001000000000000000000000000000000000000EF
:1001100000000000000000000000000000000000DF
:1001200000000000000000000000000000000000CF
:1001300000000000000000000000000000000000BF
:100140004FF0000C944518DA10B511F82C4001EB73
:100150008C0E9EF801301B0443EA04639EF80240B3
:1001600043EA04239EF803E043EA0E0340F82C30F0
:100170000CF1010C9445E8DB10BD70470022032A06
:100180001ADC00B511F822E001EB820C9CF801307A
:100190001B0443EA0E639CF802E043EA0E239CF83A
:1001A00003C043EA0C0302F10C0C40F82C3001327E
:1001B000032AE7DD5DF804FB70470022032A17DC01
:1001C00000B511F822E001EB820C9CF801301B0411
:1001D00043EA0E639CF802E043EA0E239CF803C056
:1001E00043EA0C0383600132032AEADD5DF804FB75
:1001F00070470022032A18DC10B5C46893004FEA48
:10020000146C01F822C003F1010CC4F3074E01F88D
:100210000CE003F1020CC4F3072E01F80CE00333E9
:10022000CC540132032AE8DD10BD7047436813F057
:10023000060F08D113F0010FF8D0036843F08003D4
:100240000360002070474FF0FF307047044B03609D
:10025000044AD2F88C3043F48033C2F88C307047B3
:1002600000000942000C024470B5154604680026DF
:10027000204640F8106B0422FFF762FF2946204613
:10028000FFF77CFF21232360304670BD2DE9F0414C
:100290000F4690461E46056813F00F0408D06FF015
:1002A000030313E008EB04012846FFF7A2FF103414
:1002B000B4420AD239192846FFF77FFF2846FFF7D4
:1002C000B5FF03460028EDD000E000231846BDE846
:1002D000F08170B5154604680026204640F8106B82
:1002E0000422FFF72DFF29462046FFF747FF312361
:1002F0002360304670BD2DE9F0410F4690461E4602
:10030000056813F00F0408D06FF0030313E008EB47
:1003100004012846FFF76DFF1034B4420AD23919A0
:100320002846FFF74AFF2846FFF780FF03460028CC
:10033000EDD000E000231846BDE8F08170B405461A
:100340000C4694460B4E0FCE28606960AA60EB60A5
:10035000094D0FCD20606160A260E360074C0FCCB7
:10036000CCF80000CCF80410CCF80820CCF80C3005
:1003700070BC70474004000868040008540400087A
:1003800084B001900023039302E0039B01330393A5
:10039000039A019B9A42F8DB04B0704700B597B00E
:1003A00015A8FFF753FF09AA0DA911A8FFF7C6FF6B
:1003B0000DAA11A915A8FFF757FF102305AA09A92F
:1003C00015A8FFF763FF0DAA11A915A8FFF781FF74
:1003D000102301AA05A915A8FFF78DFF0148FFF713
:1003E000CFFFE5E740420F00FEE70000014B024A65
:1003F0001A607047000000200024F40008B50B4B81
:100400000B4A03E052F8041B43F8041B09498B42D2
:10041000F8D3094B02E0002243F8042B074A934229
:10042000F9D3FFF7E3FFFFF7B9FFFEE70000002075
:1004300080040008040000200400002004000020C4
:100440002B7E151628AED2A6ABF7158809CF4F3CE8
:10045000000000006BC1BEE22E409FF992CBAB1EA4
:10046000C7E3EAD900000000000102030405060703
:1004700008090A0B0C0D0E0FF8B500BFF8B500BF48
:040480000024F40060
:04000005080003FDEF
:00000001FF
