:020000040800F2
:1000000000000220DD030008D9030008D90300081E
:10001000D9030008D9030008D90300080000000034
:10002000000000000000000000000000D9030008EC
:10003000D903000800000000D9030008D903000814
:1000400000000000000000000000000000000000B0
:1000500000000000000000000000000000000000A0
:100060000000000000000000000000000000000090
:100070000000000000000000000000000000000080
:100080000000000000000000000000000000000070
:100090000000000000000000000000000000000060
:1000A0000000000000000000000000000000000050
:1000B0000000000000000000000000000000000040
:1000C0000000000000000000000000000000000030
:1000D0000000000000000000000000000000000020
:1000E0000000000000000000000000000000000010
:1000F0000000000000000000000000000000000000
:1001000000000000000000000000000000000000EF
:1001100000000000000000000000000000000000DF
:1001200000000000000000000000000000000000CF
:1001300000000000000000000000000000000000BF
:1001400003685A6951405961704700BF2A4A0368E1
:1001500093421ED0294A934215D0294A934224D073
:10016000284A934228D0284A934218D0274A9342DB
:1001700029D0274A934232D0264A934235D0264A84
:10018000934226D07047254AD36C43F00203D364D0
:100190007047224AD36C43F00103D36470471F4A6F
:1001A000D36C43F01003D364704702F10422D36C84
:1001B00043F00403D364704702F18062D36C43F0D0
:1001C0000803D3647047154AD36C43F02003D3640B
:1001D0007047124AD36C43F48073D364D2E70F4A5A
:1001E000D36C43F04003D36470470C4AD36C43F0A4
:1001F0008003D364704700BF000002420004024243
:1002000000080242000C02420010024200140242A6
:1002100000180242001C024200200242000C02466A
:100220002DE9F04F83B00090FFF790FF4468002362
:1002300001274FF0030B266802E00133102B30D06A
:1002400007FA03F030EA0602F7D16168009A21F05C
:10025000100C5D00BCF1020F12680BFA05FE0CF1E8
:10026000FF3C21D0D2F800906FEA0E0829EA0E096F
:1002700001F0030E0EFA05FE4EEA090EBCF1010F65
:10028000C2F800E03FD9A168D06801F0030100EA9C
:10029000080801FA05F5013345EA0805102BD56079
:1002A000CED103B0BDE8F08FD4F810C05D000CF0E3
:1002B0000F0E03F0070C4FEA8C0C0EFA0CFECDF873
:1002C00004E04FF00F0E0BFA05FA6FEA0A084FEA46
:1002D000D30902EB89090EFA0CFCD9F820E02EEACA
:1002E0000C0CDDF804E04EEA0C0CC9F820C0D2F882
:1002F00000E001F0030C2EEA0A0E0CFA05FC4CEAB1
:100300000E0CC2F800C0D2F808C0D4F80CE00CEA19
:10031000080C0EFA05FE4EEA0C0CC2F808C0D2F822
:1003200004C0C1F3001199402CEA00000143516060
:10033000A9E700BFC0E90012FFF772BF0123002543
:1003400000B58FB0224909AA03A8CDE90A35CDE945
:100350000C350993FFF7EEFF80231D4909AA05A874
:100360000993FFF7E7FF4FF48043194909AA07A84B
:10037000184C0993FFF7DEFF012103A8FFF7E0FE09
:100380000295029BA34205DA029B01330293029B72
:10039000A342F9DB802105A8FFF7D2FE0195019B5E
:1003A000A34205DA019B01330193019BA342F9DBD0
:1003B0004FF4804107A8FFF7C3FE0095009BA342BE
:1003C000DADA009B01330093009BA342F9DBD3E709
:1003D00000040242801A0600FEE700BF08B5034A87
:1003E000034B1A60FFF7AAFFFEE700BF0024F400EA
:0C03F00000000020F8B500BFF8B500BF09
:0403FC000024F400E5
:04000005080003DD0F
:00000001FF
