:020000040800F2
:1000000000000220F1030008ED030008ED030008E2
:10001000ED030008ED030008ED03000800000000F8
:10002000000000000000000000000000ED030008D8
:10003000ED03000800000000ED030008ED030008D8
:1000400000000000000000000000000000000000B0
:1000500000000000000000000000000000000000A0
:100060000000000000000000000000000000000090
:100070000000000000000000000000000000000080
:100080000000000000000000000000000000000070
:100090000000000000000000000000000000000060
:1000A0000000000000000000000000000000000050
:1000B0000000000000000000000000000000000040
:1000C0000000000000000000000000000000000030
:1000D0000000000000000000000000000000000020
:1000E0000000000000000000000000000000000010
:1000F0000000000000000000000000000000000000
:1001000000000000000000000000000000000000EF
:1001100000000000000000000000000000000000DF
:1001200000000000000000000000000000000000CF
:1001300000000000000000000000000000000000BF
:1001400003685A6951405961704700BF324A0368D9
:10015000934220D0314A934215D0314A93422BD05A
:10016000304A934230D0304A93421DD02F4A9342B6
:1001700032D02F4A93423FD02E4A934244D02E4A47
:10018000934231D070472D4AD2F84C3C43F00203E1
:10019000C2F84C3C704702F18062D2F84C3C43F00C
:1001A0000103C2F84C3C7047244AD2F84C3C43F05F
:1001B0001003C2F84C3C7047204AD2F84C3C43F044
:1001C0000403C2F84C3C70471C4AD2F84C3C43F044
:1001D0000803C2F84C3C7047184AD2F84C3C43F034
:1001E0002003C2F84C3C7047144AD2F84C3C43F40C
:1001F0008073C2F84C3CC5E7104AD2F84C3C43F03F
:100200004003C2F84C3C70470C4AD2F84C3C43F0D7
:100210008003C2F84C3C70470000024200040242D6
:1002200000080242000C0242001002420014024286
:1002300000180242001C0242002002420000024656
:100240002DE9F84FFFF782FF446805462768002331
:1002500001264FF0030802E00133102B2ED006FADE
:1002600003F939EA0702F7D160682A6820F0100123
:100270004FEA430C08FA0CFA02296FEA0A0E01F160
:10028000FF311DD0D2F800B02BEA0A0B00F0030AB0
:100290000AFA0CFA4AEA0B0A0129C2F800A038D976
:1002A000A168D06801F0030100EA0E0E01FA0CF11A
:1002B000013341EA0E01102BD160D0D1BDE8F88F97
:1002C00021694FEAD30E02EB8E0E03F0070C4FEAC2
:1002D0008C0C4FF00F0A01F00F0101FA0CF10AFA31
:1002E0000CFCDEF820A02AEA0C0C41EA0C01CEF846
:1002F000201011684FEA430C08FA0CFE21EA0E0A9E
:1003000000F0030101FA0CF141EA0A016FEA0E0E56
:1003100011609168D4F80CA001EA0E010AFA0CFAF7
:100320004AEA010191605168C0F30010984021EA47
:10033000090940EA09005060B2E700BFC0E90012B5
:10034000FFF77EBF00B5264A264C012387B04FF445
:100350007041C2E900130025234904A8C2E90253F1
:10036000FFF7ECFF4FF4004104A8FFF7E9FE039507
:10037000039BA34205DA039B01330393039BA34230
:10038000F9DB4FF4804104A8FFF7DAFE0295029BE7
:10039000A34205DA029B01330293029BA342F9DBDD
:1003A0004FF4005104A8FFF7CBFE0195019BA34237
:1003B00005DA019B01330193019BA342F9DB4FF462
:1003C000805104A8FFF7BCFE0095009BA342C9DA48
:1003D000009B01330093009BA342F9DBC2E700BFFF
:1003E00004000020400D0300000C0240FEE700BFA7
:1003F00008B500F003F8FFF7A5FFFEE7014B024A3E
:100400001A607047000000200024F400F8B500BF17
:04041000F8B500BF7C
:040414000024F400CC
:04000005080003F1FB
:00000001FF
