:020000040800F2
:1000000000000220490A00083D0A0008410A0008D1
:100010003D0A00083D0A00083D0A0008450A00089C
:100020000000000000000000000000003D0A000881
:100030003D0A0008000000003D0A00083D0A0008D3
:1000400000000000000000000000000000000000B0
:1000500000000000000000000000000000000000A0
:100060000000000000000000000000000000000090
:100070000000000000000000000000000000000080
:100080000000000000000000000000000000000070
:100090000000000000000000000000000000000060
:1000A0000000000000000000000000000000000050
:1000B0000000000000000000000000000000000040
:1000C0000000000000000000000000000000000030
:1000D0000000000000000000000000000000000020
:1000E0000000000000000000000000000000000010
:1000F0000000000000000000000000000000000000
:1001000000000000000000000000000000000000EF
:1001100000000000000000000000000000000000DF
:1001200000000000000000000000000000000000CF
:1001300000000000000000000000000000000000BF
:1001400000000000000000000000000000000000AF
:10015000000000000000000000000000000000009F
:10016000000000000000000000000000000000008F
:10017000000000000000000000000000000000007F
:10018000044A0549D2F88C30016043F48033C2F848
:100190008C307047000C024400000C42F0B5002780
:1001A00044794FF0004E012C0BBF072403244FF479
:1001B00080253D463B460CBF0826042690F804C027
:1001C00001EB840104684FEA4C1CC4F800E027608E
:1001D00025600868032BD8BF1F1D03F1080E00BA65
:1001E00003F10103D4BF44F8270044F82E00B342C2
:1001F000A1F10401EDD162B1002302F10C0151F82B
:10020000042903F10800013312BA042B44F820201A
:10021000F5D145EA0C0545F0010500202560F0BD4B
:1002200070B54379012B0CBF4FF0070C4FF0030C56
:1002300003790BBF082504254FF480240024022BEA
:100240004FEA431E01EB8C0C43D0016800234FF0B2
:10025000004008600B600C60DCF80000032B03F129
:100260000806D8BF1E1D013300BAAB4241F8260074
:10027000ACF1040CF0D144F009030B6000238B6057
:100280008B608B608B6001E0DB070AD4D1F804330C
:1002900013F0060FF8D006234FF0FF30C1F80833F3
:1002A00070BD0123C1F808330C605AB1D3681BBA82
:1002B0000B6293681BBA4B6253681BBA8B6213685C
:1002C0001BBACB6244EA0E0444F0110400200C6017
:1002D00070BD00234FF00041066831603360346028
:1002E000DCF80010032B03F10800D8BF181D013300
:1002F00009BAAB4246F82010ACF1040CF0D15AB167
:10030000D3681BBA336293681BBA736253681BBA13
:10031000B36213681BBAF36244EA0E0444F00104AA
:100320000020346070BD00BF2DE9F04113F00F07CD
:1003300043D1002B3ED094464FF0010801F1100646
:10034000046801EB070E5EF8042B12BA7645A26032
:10035000F9D1D4F8042312F0060F06D1D2070BD43A
:10036000D4F8042312F0060FF8D006234FF0FF3024
:10037000C4F80833BDE8F0816246C4F808830CF184
:10038000100EE56804324FEA156C02F804CC4FEA0F
:10039000154C02F803CC4FEA152C02F802CC02F8F7
:1003A000015C7245EDD11037BB4206F1100601D950
:1003B0009446C5E70020BDE8F0816FF00300D9E75F
:1003C00010B50C460146064800F09EFD0549064B57
:1003D0000348002C08BF1946BDE8104000F094BD4A
:1003E00004000020640F0008700F0008102400B5FE
:1003F00000238BB00122A549A54800F07FFDA54947
:10040000A34800F081FDA449A14800F07DFDA34A66
:1004100002AB0021A248009400F078FAA14B029AA6
:100420009A4200F0EF80012110259F4881F00101E0
:1004300006ACFFF7C5FF234602AA002198480095A5
:1004400000F080FA994B069A9A4200F02D82012121
:100450001025974881F00101FFF7B2FF8F4A02ABE8
:1004600001219448009500F051FA934B029A9A4268
:1004700000F0048201211025904881F00101FFF76E
:100480009FFF234602AA01218A48009500F05AFAEC
:10049000864B069A9A4200F0D481012110258848A3
:1004A00081F00101FFF78CFF8649794800F02CFDAF
:1004B00002AA7A4B00920021834A7948019500F004
:1004C0005DFA824B029A9A4200F0A6810121102522
:1004D0007F4881F00101FFF773FF7B4A02AB0021E7
:1004E0006F480094019500F069FA704B069A9A42A1
:1004F00000F0758101211025764881F00101FFF798
:100500005FFF02AA654B009201216F4A694801957D
:1005100000F034FA704B029A9A4200F04F810121A8
:1005200010256E4881F00101FFF74AFF664A02ABD1
:10053000012160480094019500F040FA5B4B069A57
:100540009A4200F01E8101211025654881F00101C9
:10055000FFF736FF63494E4800F0D6FC02AA4F4B26
:1005600000920021604A4E48019500F047FA5F4B27
:10057000029A9A4200F0EF80012110255C4881F038
:100580000101FFF71DFF584A02AB002144480094C7
:10059000019500F033FA454B069A9A4200F0BE806E
:1005A00001211025534881F00101FFF709FF02AA3C
:1005B0003A4B009201214C4A3E48019500F01EFA48
:1005C0004D4B029A9A424DD0012110254B4881F0A3
:1005D0000101FFF7F5FE444A02AB012135480094C2
:1005E000019500F00BFA314B069A9A4220D0012176
:1005F000434881F00101FFF7E3FE4249244800F03F
:1006000083FCFEE7404B039A9A427FF40CAF3F4BCA
:10061000049A9A427FF407AF03F12443059A03F545
:10062000131303F27C739A427FF4FDAE0021FBE6C4
:100630006FF49E7103F13443079AA3F5FC130B4446
:100640009A42D4D16FF4117203F1F643A3F5041367
:100650001344089A9A42CAD12D4B099A9A42C6D19C
:100660000021C5E76FF4DD6003F11243039AA3F59F
:10067000671303449A42A7D1264B049A9A42A3D106
:10068000254B059A9A429FD100219EE700440040E5
:10069000040000207C0F0008A40F0008F8100008D8
:1006A000B81000083AD77BB4B40F00086BC1BEE2A3
:1006B000C40F0008C8100008F3EED1BDD40F000825
:1006C000E40F0008F40F0008A81000087649ABAC4E
:1006D0000410000814100008F58C4C0424100008C5
:1006E0003410000844100008E8100008874D61919C
:1006F0005410000864100008601EC3137410000832
:1007000084100008941000080D7A3660A89ECAF381
:100710007393172AB7A7F504BBF3D2286FF49E7C16
:1007200003F13443079AA3F5FC1363449A427FF420
:1007300037AF6FF4117503F1F643089AA3F504136C
:100740002B449A427FF42CAF664B099A9A427FF46D
:1007500027AF002125E7644B039A9A427FF40CAF40
:1007600003F17653049A03F5B92303F265639A42C1
:100770007FF402AF5D4B059A9A427FF4FDAE0021F3
:10078000FBE66FF49E7203F13443A3F5FC131344AC
:10079000079A9A427FF4D7AE6FF4117E03F1F643C5
:1007A000089AA3F5041373449A427FF4CCAE4D4BE0
:1007B000099A9A427FF4C7AE0021C5E64C4B039AD2
:1007C0009A427FF4ACAE4B4B049A9A427FF4A7AEA8
:1007D000494B059A9A427FF4A2AE0021A0E66FF43D
:1007E0009E7003F13443079AA3F5FC1303449A4225
:1007F0007FF480AE6FF4117103F1F643089AA3F50C
:1008000004130B449A427FF475AE364B099A9A4210
:100810007FF470AE00216EE603F11A43039A03F5EC
:10082000DA230B339A427FF451AE344B049A9A4246
:100830007FF44CAE324B059A9A427FF447AE0021CA
:1008400045E66FF49E7C03F13443079AA3F5FC134D
:1008500063449A427FF421AE6FF4117503F1F643BD
:10086000089AA3F504132B449A427FF416AE1D4B4D
:10087000099A9A427FF411AE00210FE6214B039AA8
:100880009A427FF4F7AD03F18443049AA3F58D03F4
:10089000A3F2AF739A427FF4EDAD1B4B059A9A42D7
:1008A0007FF4E8AD0021E6E56FF49E7203F1344376
:1008B000A3F5FC131344079A9A427FF4C8AD6FF472
:1008C000117E03F1F643089AA3F5041373449A4288
:1008D0007FF4BDAD034B099A9A427FF4B8AD002175
:1008E000B6E500BF7393172AB620E326990DB6CE5E
:1008F000D6E5F1BA779EABFB5F7BFBD6CEE98E9B4C
:1009000012E9197DB5D2A03C3DB181F8F0B50025C2
:10091000044683B06846164601951F468DF80510BB
:100920000095FFF72DFC2A4621466846FFF736FC66
:1009300028B93A4631466846089BFFF7F5FC03B0F4
:10094000F0BD00BFF0B50025044683B068461646EA
:1009500001951F468DF805100095FFF711FC2A46FA
:1009600021466846FFF75CFC28B93A46314668469E
:10097000089BFFF7D9FC03B0F0BD00BFF0B54FF006
:10098000010C04461546002783B06846CDE9007780
:100990001E468DF805108DF804C0FFF7F1FB2A46BE
:1009A00021466846FFF7FAFB28B9DDE908233146FE
:1009B0006846FFF7B9FC03B0F0BD00BFF0B54FF0DB
:1009C000010C04461546002783B06846CDE9007740
:1009D0001E468DF805108DF804C0FFF7D1FB2A469E
:1009E00021466846FFF71CFC28B9DDE9082331469B
:1009F0006846FFF799FC03B0F0BD00BFF0B54FF0BB
:100A0000020C04461546002783B06846CDE90077FE
:100A10001E468DF805108DF804C0FFF7B1FB2A467D
:100A200021466846FFF7BAFB28B9DDE908233146BD
:100A30006846FFF779FC03B0F0BD00BFFEE700BFDA
:100A4000FEE700BFFEE700BF0F48104A08B590421E
:100A500007D2013A121A22F003020D49043200F0C3
:100A60006BFA0C480C4A904207D2013A121A22F053
:100A700003020021043200F06CFA084B084A1A60A5
:100A8000FFF7B4FCFEE700BF0000002004000020D8
:100A900010110008040000202400002000000020A5
:100AA000006CDC0200214368AA4A30B4934219600A
:100AB00037D0A94A93420DD0A84A934200F017813B
:100AC000A74A934200F06C81A64A934200F0B2809C
:100AD00002784BE0A44AD2F89C1041F40031C2F8ED
:100AE0009C10D2F88C1041F00101C2F88C100278F1
:100AF000511E012940F28A80002A40F0BD819B49A5
:100B00000C6824F0C0040C600C6844F080040C6095
:100B10000C6A24F470440C620C6A44F4E0440C62E5
:100B200024E0914AD2F8A41041F48041C2F8A41004
:100B3000D2F88C1041F00101C2F88C100278511EDD
:100B4000012942D9002A40F0978188490C6824F491
:100B500040140C600C6844F400140C604C6A24F4DB
:100B600070644C624C6A44F4E0644C6241F2883434
:100B700040F2A1117E4D1D6290F801C0BCF1000F42
:100B800018BF21460024D9605C609C60002A79D09F
:100B9000012A14BF0D2209226E491A608B4276D0B9
:100BA0006D4A934200F0978002F58062934200F014
:100BB0009A8002F58062934200F0C78002F580625D
:100BC000934200F0BE8030BC70476849022A0C682E
:100BD00024F440240C600C6844F400240C604C6A3B
:100BE00024F0F0044C624C6A44F070044C62ACD0C7
:100BF0005F4A1A624278002A40F0FA8001220021FE
:100C000040F2A114DC6059609960C1E75749022A9B
:100C10000C6824F030040C600C6844F020040C6074
:100C20000C6A24F470640C620C6A44F4E0640C6294
:100C3000DED164E74C49D1F89C2042F48012C1F81F
:100C40009C200278541E012C40F2EF80002A40F0D4
:100C50003581454CD4F88C1041F00801C4F88C1053
:100C600044490C6824F030040C600C6844F0200403
:100C70000C600C6A24F470640C620C6A44F4006426
:100C80000C6273E7052233491A608B4288D14FF416
:100C90000021394C4FF0000C4FF0E02384F800C0E5
:100CA0002C4AC3F804114368934210D02A4A934255
:100CB00015D02A4A934240D0294A934200F09580A9
:100CC000284A93427FF47FAF2C4B18607BE72C4B74
:100CD00030BC186070474FF480112A4CDAE72A4B79
:100CE00030BC186070474FF40011284CD2E71E4A00
:100CF000D2F89C1041F48021C2F89C10D2F88C10DC
:100D000041F00201C2F88C100278511E012977D9F6
:100D1000002A40F0D3801E490C6824F440040C6083
:100D20000C6844F400040C604C6A24F470444C6277
:100D30004C6A44F4E0444C6218E7164B30BC18602F
:100D400070474FF40001144CA4E74FF48001134C9A
:100D5000A0E700BF003801400044004000480040C8
:100D6000004C004000500040000C024400000242D1
:100D7000FF3B1200000C024233E400E014000020AC
:100D80001800002034E400E01C00002035E400E0FE
:100D9000000402422000002037E400E036E400E0D6
:100DA000504AD2F89C1041F40021C2F89C10D2F8AD
:100DB0008C1041F00101C2F88C100278511E0129FB
:100DC00068D9002A7AD148490C6824F00C040C60D8
:100DD0000C6844F008040C600C6A24F0F0040C6207
:100DE0000C6A44F080040C62C0E6404B1860EAE6EE
:100DF000002241F28831D9605A609A600922CBE61C
:100E00003B49022A0C6824F440140C600C6844F43A
:100E100000140C604C6A24F470644C624C6A44F414
:100E2000E0644C627FF4E4AE75E7D1F88C40022AAE
:100E300044F00404C1F88C402E490C6824F040743E
:100E40000C600C6844F000740C604C6A24F470244C
:100E50004C624C6A44F400244C623FF4FAAE264AD9
:100E60001A624278002A36D00122002141F28834E9
:100E7000DC60596099608BE61F491962417800294E
:100E80003FF4BDAE002141F288340D22DC60596090
:100E9000996081E61449022A0C6824F003040C606E
:100EA0000C6844F002040C600C6A24F00F040C621D
:100EB0000C6A44F008040C62D1D184E70E4919622F
:100EC00041780029D1D140F2A1140D22DC60596093
:100ED00099601A6064E640F2A111D9605A609A6084
:100EE0008CE700BF000C024400000242100000200A
:100EF0000004024200080242FF3B120002704370ED
:100F00004160FFF7CFBD00BF8C46097899B110B49E
:100F10000D2442680A2909D0D3691B06FCD59162C9
:100F20001CF8011F0029F5D110BC7047D3691806C1
:100F3000FCD59462F0E770470A44431E914200D109
:100F4000704710B511F8014B914203F8014FF9D1E8
:100F500010BD02440346934200D1704703F8011BC1
:100F6000F9E700003A20504153530D0A00000000F9
:100F70003A204641494C0D0A000000000D0A3D3D53
:100F80003D2041455320546573747320284E4953C6
:100F900054205350203830302D33384129203D3DE6
:100FA0003D0D0A000D0A2D2D2D20454342202D2DEB
:100FB0002D0D0A0020204543422D31323820656E28
:100FC0006300000020204543422D31323820646503
:100FD0006300000020204543422D32353620656EE7
:100FE0006300000020204543422D323536206465E1
:100FF000630000000D0A2D2D2D20434243202D2D8E
:101000002D0D0A0020204342432D31323820656ED9
:101010006300000020204342432D313238206465B4
:101020006300000020204342432D32353620656E98
:101030006300000020204342432D32353620646592
:10104000630000000D0A2D2D2D20435452202D2D1C
:101050002D0D0A0020204354522D31323820656E68
:101060006300000020204354522D31323820646543
:101070006300000020204354522D32353620656E27
:101080006300000020204354522D32353620646521
:10109000630000000D0A2D2D2D20446F6E65202D5C
:1010A0002D2D0D0A000000000001020304050607B3
:1010B00008090A0B0C0D0E0F2B7E151628AED2A6B2
:1010C000ABF7158809CF4F3C603DEB1015CA71BED8
:1010D0002B73AEF0857D77811F352C073B6108D7D8
:1010E0002D9810A30914DFF4F0F1F2F3F4F5F6F7FC
:1010F000F8F9FAFBFCFDFEFF6BC1BEE22E409F96A5
:10110000E93D7E117393172AF8B500BFF8B500BF0B
:04111000006CDC0291
:0400000508000A499C
:00000001FF
