:020000040800F2
:1000000000000220310F00082D0F00082D0F0008FE
:100010002D0F00082D0F00082D0F00080000000014
:100020000000000000000000000000002D0F00088C
:100030002D0F0008000000002D0F00081504000817
:1000400000000000000000000000000000000000B0
:1000500000000000D508000800000000F9020008B8
:1000600009030008190300082903000839030008E0
:1000700049030008590300086903000879030008D0
:10008000890300089D030008B1030008C5030008A8
:10009000D9030008ED030008010400080000000077
:1000A0000000000000000000000000000000000050
:1000B0000000000000000000000000000000000040
:1000C0000000000000000000000000000000000030
:1000D0000000000000000000000000000000000020
:1000E0000000000000000000000000000000000010
:1000F0000000000000000000000000000000000000
:1001000000000000000000000000000000000000EF
:1001100000000000000000000000000000000000DF
:1001200000000000000000000000000000000000CF
:1001300000000000000000000000000000000000BF
:1001400000000000000000000000000000000000AF
:10015000000000000000000000000000000000009F
:10016000000000000000000000000000000000008F
:10017000000000000000000000000000000000007F
:10018000000000000000000000000000000000006F
:10019000000000000000000000000000000000005F
:1001A000000000000000000000000000000000004F
:1001B000000000000000000000000000000000003F
:1001C000000000000000000000000000000000002F
:1001D000000000000000000000000000000000001F
:1001E000000000000000000000000000000000000F
:1001F00000000000000000000000000000000000FF
:1002000000000000000000000000000000000000EE
:1002100000000000000000000000000000000000DE
:1002200000000000000000000000000000000000CE
:1002300000000000000000000000000000000000BE
:100240000021064A10B4D2F88830054C43F480539C
:10025000C2F888300460017110BC7047000C024481
:1002600000300240E0B1D9B1D3B130B4A125046867
:10027000A5604AB1013A0A44013911F801CF91420F
:1002800084F800C0F9D1046822680020D243110C20
:10029000140E5970110A1C709970DA7030BC7047D6
:1002A000012070477F2823D811B310B4114C0028C7
:1002B00044F8301004EBC004626016DB01244109ED
:1002C00000F1604C1A01890000F01F0301F1604148
:1002D0000CF5644CD2B28CF8002004FA03F301F55B
:1002E0006141002010BC0B607047002010BC7047BB
:1002F0000120704768000020024A936B0BB1D06B5D
:100300001847704768000020024A136C0BB1506C0C
:100310001847704768000020024A936C0BB1D06CFC
:100320001847704768000020024A136D0BB1506DEA
:100330001847704768000020024A936D0BB1D06DDA
:100340001847704768000020024A136E0BB1506EC8
:100350001847704768000020024A936E0BB1D06EB8
:100360001847704768000020024A136F0BB1506FA6
:100370001847704768000020024A936F0BB1D06F96
:100380001847704768000020034AD2F8803013B144
:10039000D2F884001847704768000020034AD2F85A
:1003A000883013B1D2F88C001847704768000020DD
:1003B000034AD2F8903013B1D2F89400184770472E
:1003C00068000020034AD2F8983013B1D2F89C009C
:1003D0001847704768000020034AD2F8A03013B1D4
:1003E000D2F8A4001847704768000020034AD2F8EA
:1003F000A83013B1D2F8AC0018477047680000204D
:10040000034AD2F8B03013B1D2F8B400184770479D
:1004100068000020024A136801331360704700BF70
:1004200068040020024B016002718360704700BFC6
:10043000006CDC0230B4002507248368064A0749B3
:10044000A2FB032302689B09013B53609560146083
:100450000B6830BCC3607047D34D62106804002045
:100460004FF47A7C02680749936809685268C0684B
:10047000D31A0CFB03F30132B3FBF2F3081A0CFBA3
:1004800000307047680400204268D36913F00F0100
:1004900006D19B0607D58368506A23B1C0B21847BE
:1004A0001162990600D47047536A704730B4002433
:1004B0004368AD4902468B421C6037D0AB498B4242
:1004C0000DD0AB498B4200F0F780AA498B4200F077
:1004D0002581A9498B4200F0B08001784BE0A74903
:1004E000D1F89C0040F40030C1F89C00D1F88C0099
:1004F00040F00100C1F88C001178481E012840F23C
:100500008880002940F08A819D48046824F0C00456
:100510000460046844F080040460046A24F47044B5
:100520000462046A44F4E044046224E09349D1F88C
:10053000A40040F48040C1F8A400D1F88C0040F041
:100540000100C1F88C001178481E012840D900290B
:1005500040F064818A48046824F44014046004680C
:1005600044F400140460446A24F470644462446AED
:1005700044F4E064446241F2883440F2A110814DB9
:100580001D6292F801C0BCF1000F18BF2046002484
:10059000D8605C609C60002977D0012914BF0D21D0
:1005A000092171481960834274D070498B4277D019
:1005B00001F580618B4279D001F580618B4200F0BA
:1005C000A78001F580618B4200F09C8030BC7047B1
:1005D0006B480229046824F440240460046844F44D
:1005E00000240460446A24F0F0044462446A44F045
:1005F00070044462AED0634919625178002940F01A
:10060000C9800121002040F2A114DC60586098608C
:10061000C3E75B480229046824F0300404600468DE
:1006200044F020040460046A24F470640462046AE0
:1006300044F4E0640462DED166E75048D0F89C10D0
:1006400041F48011C0F89C1011784C1E012C40F22E
:10065000BE80002940F00481484CD4F88C0040F062
:100660000800C4F88C004848046824F03004046092
:10067000046844F020040460046A24F47064046292
:10068000046A44F40064046275E705213648196081
:1006900083428AD130BC332000233C49FFF702BE9D
:1006A000342030BC00233949FFF7FCBD352030BC75
:1006B00000233649FFF7F6BD3049D1F89C0040F4DD
:1006C0008020C1F89C00D1F88C0040F00200C1F8F5
:1006D0008C001178481E012864D9002940F0C080A0
:1006E0002B48046824F440040460046844F40004C3
:1006F0000460446A24F470444462446A44F4E0446C
:10070000446238E7372030BC00232049FFF7CABDD8
:10071000362030BC00231D49FFF7C4BD1749D1F86E
:100720009C0040F40020C1F89C00D1F88C0040F0FF
:100730000100C1F88C001178481E01287CD90029DD
:1007400040F08E800E48046824F00C0404600468B5
:1007500044F008040460046A24F0F0040462046AAB
:1007600044F08004046206E7003801400044004081
:1007700000480040004C004000500040000C024483
:1007800000000242FF3B1200000C024289040008F4
:1007900000040242002141F28830D860596099601B
:1007A0000921FEE638480229046824F44014046054
:1007B000046844F400140460446A24F470644462DD
:1007C000446A44F4E06444627FF415AF88E7D0F8EB
:1007D0008C40022944F00404C0F88C402B48046883
:1007E00024F040740460046844F000740460446AB7
:1007F00024F470244462446A44F4002444623FF4C4
:100800002BAF234919625178002936D001210020ED
:1008100041F28834DC6058609860BEE61C4818627B
:10082000507800283FF4EEAE002041F288340D21CC
:10083000DC6058609860B4E616480229046824F029
:1008400003040460046844F002040460046A24F0B1
:100850000F040462046A44F008040462D1D171E711
:100860000B48186250780028D1D140F2A1140D2114
:10087000DC6058609860196097E640F2A110D8607B
:10088000596099608CE700BF0004024200080242F0
:10089000FF3B120000000242027043704160FFF70C
:1008A00005BE00BF8C46097899B110B40D2442688A
:1008B0000A2909D0D3691B06FCD591621CF8011FD7
:1008C0000029F5D110BC7047D3691806FCD5946295
:1008D000F0E770474FF4E0220A4B196A1A639A6AEC
:1008E00022F480329A62CB0302D50122064B1A70A1
:1008F00011F4C02F04D001230449034A0B70137074
:10090000704700BF002002406C0400206D040020EE
:1009100000234FF0E022202130B4044D044CC0E904
:100920000053637130BCC2F80011704700200240D0
:1009300000E400E00368986A10F0010006D0044962
:10094000044A59605A60986A00F00100704700BF7D
:1009500023016745AB89EFCD03461A680020936AEF
:1009600043F00103936270470368186AC007FCD420
:10097000986A40F0020098620A609A6A42F0100297
:100980009A62186A10F00300FBD19A6A22F0020200
:100990009A627047007870470068704730B4026808
:1009A000136A13F00103FBD14FF4E02501F1784104
:1009B000946A4FEA513C1249214041EA8C1141F0BE
:1009C000040191620F4C10490B7023700F4B1D6393
:1009D000936A43F480339362936A43F020039362F3
:1009E0000B78002BFCD0916A094B0B409362227864
:1009F00023784260181E18BF012030BC704700BF2A
:100A000033F0FF7F6D0400206C04002000200240C2
:100A10003BF0FF7F036810B4D869C40706D51148BE
:100A2000114CDC60D860D869C00717D401290DD0FB
:100A30000E48D0F8EC1121EA0202C0F8EC21DA6984
:100A4000002042F0010210BCDA6170470748D0F87C
:100A5000EC1021EA0202C0F8EC20F0E7012010BC03
:100A6000704700BF7F6E5D4C3B2A19080020024092
:100A7000024B186DC0F30720704700BF00200240F2
:100A800010B51C4682B001ABFFF7ECFB9DF80420CB
:100A900023789A4202D0012002B010BD63789DF8FD
:100AA000052001349A42F6D19DF8062014F8013F42
:100AB0009A42F0D19DF8072063789A42EBD100204A
:100AC000EAE700BF30B50D4683B0114604461A462A
:100AD000284601ABFFF7C6FB18B10125284603B035
:100AE00030BD2046019DFFF725FF0028F5D12046A7
:100AF0000699FFF753FF60B92ABA20460699FFF717
:100B000033FF054628B92046FFF726FF284603B0E5
:100B100030BD2046FFF720FFDFE700BF00B5A1B0E2
:100B200005A8FFF7F5FE00230122A64909A8FFF753
:100B3000B3FEA54909A8FFF7B5FE0022A3490CA8FA
:100B4000FFF770FC07A8FFF77BFBA14909A8FFF797
:100B5000A9FE0CA8FFF76EFC05A8FFF7EBFE0CA89A
:100B6000FFF77EFC04469B4909A8FFF79BFE22463F
:100B7000994910A800F020FA10A909A8FFF792FEE1
:100B8000964909A8FFF78EFE954909A8FFF78AFE46
:100B90000CA8FFF74FFC934905A8FFF7FFFE0CA830
:100BA000FFF75EFC04468B4909A8FFF77BFE22464F
:100BB000894910A800F000FA10A909A8FFF772FEF1
:100BC000864909A8FFF76EFE874E884909A8FFF7F6
:100BD00069FE0CA8FFF72EFC3246824905A8FFF7F4
:100BE000C3FE0CA8FFF73CFC04467A4909A8FFF7AE
:100BF00059FE2246784910A800F0DEF910A909A88C
:100C0000FFF750FE754909A8FFF74CFE784909A87F
:100C1000FFF748FE0CA8FFF70DFC05A8FFF79CFEA8
:100C20000CA8FFF71DFC04466A4909A8FFF73AFE25
:100C30002246694910A800F0BFF910A909A8FFF7DA
:100C400031FE664909A8FFF72DFE6A4909A8FFF79A
:100C500029FE0CA8FFF7EEFB6248FFF79BFE054656
:100C60000CA8FFF7FDFB0446634909A8FFF71AFE2D
:100C70002A46624910A800F09FF910A909A8FFF7B9
:100C800011FE5F4909A8FFF70DFE2246524910A840
:100C900000F092F910A909A8FFF704FE4F4909A82E
:100CA000FFF700FE574909A8FFF7FCFD0CA8FFF766
:100CB000C1FB4C48FFF770FE04460CA8FFF7D0FBC1
:100CC0000546444909A8FFF7EDFD2A46424910A808
:100CD00000F072F910A909A8FFF7E4FD3F4909A83F
:100CE000FFF7E0FDB4420CBF4749484909A8FFF7A8
:100CF000D9FD474909A8FFF7D5FD05A8FFF7B8FEBC
:100D0000AA28024600F0F080BB2858D0414B424947
:100D1000CC2818BF0B464149414C10A800F04CF9B3
:100D200010A909A8FFF7BEFDD4F8E8203D4910A896
:100D300000F042F910A909A8FFF7B4FD4FF00042F6
:100D4000012105A8FFF766FE002840F0C880D4F80E
:100D5000EC20354910A800F02FF910A909A8FFF7D9
:100D6000A1FD324909A8FFF79DFD314909A8FFF708
:100D700099FD304D304909A8FFF794FD0CA8FFF705
:100D800059FB4FF470334FF0006207A905A8009596
:100D9000FFF798FE04460CA8FFF762FB0346002C01
:100DA00054D0264A264910A800F006F910A909A82F
:100DB000FFF778FD234909A8FFF774FDFEE7224BF2
:100DC000A9E700BF004400402819000810E000E037
:100DD0003819000850190008601900084C1900085B
:100DE0006419000800F00308785634127C190008D2
:100DF00098190008B0190008D4190008E41900086F
:100E0000EC190008001A0008241A00083C1A00080F
:100E1000581A0008B418000800190008781A0008C9
:100E200000200240941A0008AC1A0008E81A0008D2
:100E3000241B000800C003084C1B0008B41B00085A
:100E4000DC1B0008BC1B0008E41800082E4A2F49D0
:100E500010A800F0B1F810A909A8FFF723FD284653
:100E6000FFF79AFD84464FEA1C238DF81230DBB25F
:100E70004FEA1C4400935FFA8CF34FEA1C6224494A
:100E800001930295E3B210A88DF813C08DF81020DD
:100E90008DF8114000F090F810A909A8FFF702FDA5
:100EA0000CA8FFF7C7FA04AB4FF470324FF00061A3
:100EB00007A8FFF7E5FD04460CA8FFF7D1FA0346A3
:100EC000A4B9114A134910A800F076F810A909A88E
:100ED000FFF7E8FC104909A8FFF7E4FC6EE70F49AB
:100EE00009A8FFF7DFFC40E70D4B14E70D4A09495D
:100EF00010A800F061F810A909A8FFF7D3FC0A496F
:100F000009A8FFF7CFFCE9E7701B0008DC1B00080D
:100F1000001C0008741B0008981B0008041B000834
:100F2000CC180008B41B0008BC1B0008FEE700BF7B
:100F30000F48104A08B5904207D2013A121A22F01F
:100F400003020D49043200F021F80C480C4A90428B
:100F500007D2013A121A22F003020021043200F0F3
:100F600022F8084B084A1A60FFF7D8FDFEE700BFD9
:100F70000000002068000020641C000868000020B9
:100F80008404002000000020006CDC020A44431EA0
:100F9000914200D1704710B511F8014B914203F80E
:100FA000014FF9D110BD02440346934200D170476E
:100FB00003F8011BF9E700000EB400B59CB06FF018
:100FC00000411DAB02900690079104910848094921
:100FD00053F8042B059102A90068019300F068F80A
:100FE000029B00221A701CB05DF804EB03B070473E
:100FF000040000200802FFFF2DE9F0478E688246BA
:101000000C4690469E421F4638D88A8912F4906F4B
:1010100032D0256801330969A5EB0109656905EB43
:1010200045054B4405EBD5756D109D4238BF1D46F7
:10103000530531D5294600F063FB064650B90C2311
:101040004FF0FF30CAF80030A38943F04003A3817A
:10105000BDE8F0874A462169FFF798FFA38923F48A
:10106000906343F08003A38126614E446561A5EB44
:10107000090526603E46A560BE4200D93E4632467E
:101080004146206800F0B8FAA36800209B1BA360CB
:10109000236833442360DBE72A4600F0A5FB0646BD
:1010A0000028E1D12169504600F0C0FAC7E70000EE
:1010B0002DE9F04F98468B899DB007461B060D46DB
:1010C00014460ED50B6963B9402100F019FB286066
:1010D000286120B90C233B604FF0FF30D1E0402362
:1010E0006B610023CDF80C804FF00109DFF8AC8173
:1010F000099320238DF8293030238DF82A30234698
:101100009A4613F8012B0AB1252AF9D1BAEB040B40
:101110000BD05B46224629463846FFF76DFF01306B
:1011200000F0AA80099A5A4409929AF80030002BDC
:1011300000F0A28000234FF0FF320AF1010A04936D
:1011400007938DF853301A93CDE9052354460522B1
:10115000524814F8011B00F041FA049AD8B9D0069D
:1011600044BF20238DF85330110744BF2B238DF843
:1011700053309AF800302A2B15D0079A5446002095
:101180004FF00A0C214611F8013B303B092B4ED998
:10119000B0B1079214E0A0EB0803A24609FA03F3EA
:1011A00013430493D2E7039B191D1B68002B039183
:1011B000BBBF5B4242F0020207930793B8BF0492A1
:1011C00023782E2B0CD163782A2B35D1039B023444
:1011D0001A1D1B68002B0392B8BF4FF0FF33059315
:1011E000DFF8BCA003222178504600F0F7F940B1A7
:1011F0004023A0EB0A00013403FA00F0049B0343F0
:10120000049314F8011B062226488DF8281000F0DC
:10121000E5F9002838D0244B1BBB039B073323F090
:10122000070308330393099B3344099367E70CFBD7
:1012300002320C460120A5E7002301344FF00A0CCE
:1012400019460593204610F8012B303A092A03D994
:10125000002BC5D00591C3E70CFB012104460123F7
:10126000F0E703AB2A4604A9384600930F4B00E091
:1012700000BF421C0646D6D1AB895B063FF52CAFBA
:1012800009981DB0BDE8F08F03AB2A4604A9384683
:101290000093064B00F07CF8EBE700BF281C000829
:1012A0002E1C0008321C000800000000F90F000886
:1012B0002DE9F047164699468A6807460B690C46A1
:1012C000DDF820809342B8BF1346336091F8432085
:1012D0000AB1013333602368990642BF3368023391
:1012E0003360256815F0060506D104F1190AE36894
:1012F00032689B1AAB4229DC94F84320131E226803
:1013000018BF012392062ED404F143024946384601
:10131000C047013021D023681A3454F80E5C03F022
:10132000060332680026042B54F8123C08BFAD1A9D
:1013300054F80A2C14BF002525EAE5759342C4BF72
:101340009B1AED18B5421AD1002008E0012352463D
:1013500049463846C047013003D14FF0FF30BDE861
:10136000F0870135C3E7E1185A1C302002332244CC
:1013700081F8430094F8451082F84310C4E7012334
:10138000224649463846C0470130E6D00136D9E703
:101390002DE9FF470F7E914680460C46782F9A46EE
:1013A0000C9D01F1430207D8622F0AD8002F00F0EC
:1013B000D880582F00F0A38004F1420584F84270D1
:1013C0003AE0A7F16303152BF6D801A151F823F0F9
:1013D000291400083D140008B9130008B9130008C7
:1013E000B9130008B91300083D140008B913000828
:1013F000B9130008B9130008B9130008491500080B
:101400006D1400082B150008B9130008B913000863
:101410006B150008B91300086D140008B913000813
:10142000B9130008331500082B681A1D1B682A60C1
:1014300004F1420584F842300123A3E020682968C2
:10144000060601F104030AD50E682B60002E03DAAC
:101450002D23764284F843305E480A2319E00E6853
:1014600010F0400F2B6018BF36B2EFE72B682068F2
:10147000191D2960010601D51E6802E04606FBD54C
:101480001E886F2F53480CBF08230A23002184F8BD
:1014900043106568002DA560A2BF216821F00401FA
:1014A00021600EB9002D4DD01546B6FBF3F103FBBC
:1014B0001167C75D05F8017D37460E46BB42F4D97A
:1014C000082B0BD12368DE0708D523696168994290
:1014D000DEBF302305F8013C05F1FF35521B2261C8
:1014E0004B4603AA21464046CDF800A0FFF7E0FE98
:1014F00001304CD14FF0FF3004B0BDE8F0873548E3
:1015000081F845702968236851F8046B29601D062D
:1015100014D5DF0744BF43F0200323601EB92368BE
:1015200023F0200323601023B0E7236843F0200357
:1015300023607823284884F84530E3E7590648BFFC
:10154000B6B2E6E71546BBE72B682668181D616949
:10155000286035061B6801D5196002E07006FBD5CE
:101560001980002315462361BAE72B6800211A1D54
:101570002A601D686268284600F030F808B1401BF8
:10158000606063682361002384F84330A8E723691F
:101590002A4649464046D0470130ABD023689B07D6
:1015A00013D4E068039B9842B8BF1846A4E7012310
:1015B000324649464046D04701309BD00135E3686A
:1015C00003995B1AAB42F2DCEBE7002504F1190644
:1015D000F5E700BF391C00084A1C0008C9B20346E1
:1015E000024410B59342184601D1002003E004786C
:1015F00001338C42F6D110BD884210B501EB0204D4
:1016000002D98442234607D8431EA14208D011F8CC
:10161000012B03F8012FF8E7024401468A4200D16A
:1016200010BD13F8014D02F8014DF7E738B5054636
:10163000002941D051F8043C0C1F002BB8BFE4181E
:1016400000F012F91D4A136833B96360146028462C
:10165000BDE8384000F00EB9A34208D9206821182F
:101660008B4201BF19685B6809182160EDE71A46D3
:101670005B680BB1A342FAD911685018A0420BD194
:1016800020680144501811608342E0D118685B68FB
:10169000014453601160DAE702D90C232B60D6E7CE
:1016A000206821188B4202BF19685B6809186360C3
:1016B00008BF21605460CAE738BD00BF7004002035
:1016C00070B50E4E0C460546316811B900F0BCF8F5
:1016D00030602146284600F0B7F8431C0AD0C41CED
:1016E00024F00304A04207D0211A284600F0ACF8E9
:1016F000013001D14FF0FF34204670BD740400204A
:101700002DE9F041CD1C074625F0030508350C2DC9
:1017100038BF0C25002D01DBA94205D90C2300267A
:101720003B603046BDE8F0812E4E00F09DF83368F6
:101730001C4634BB29463846FFF7C2FF431C04460B
:101740004DD134682646002E40D1236831463846B4
:1017500004EB030800F078F880453AD1216803359E
:1017600038466D1A25F0030508350C2D38BF0C25B9
:101770002946FFF7A5FF01302BD023682B442360B7
:101780000EE02268521B1ED40B2A16D96119A342FF
:10179000256018BF5960636808BF316062514B60B3
:1017A00004F10B06384600F065F8231D26F0070605
:1017B000F21AB6D09B1BA350B3E76268A3420CBFDA
:1017C00032605A60ECE723466468B2E734467668D4
:1017D000B9E70C2338463B6000F04CF8A1E72560E0
:1017E000DEE700BF700400202DE9F041804614467A
:1017F0000E4621B91146BDE8F041FFF781BF2AB975
:101800002546FFF713FF2846BDE8F08100F038F8C1
:101810008442074602D8B4EB500F12D82146404606
:10182000FFF76EFF05460028EDD0BC422246314648
:1018300028BF3A46FFF7AAFB31464046FFF7F6FEBF
:10184000E1E73546DFE7000038B50023054D0446E3
:1018500008462B6000F01EF8431C02D12B6803B130
:10186000236038BD78040020014800F011B800BFA3
:101870007C040020014800F00CB800BF7C0400206C
:1018800051F8043C181F002BBCBF0B58C018704700
:1018900070477047054A0346106810B1034413604F
:1018A0007047034803441360704700BF8004002062
:1018B000840400204C6576656C2032202849525201
:1018C000455645525349424C452129004C657665A1
:1018D0006C203020286E6F2070726F74656374699D
:1018E0006F6E29004C6576656C2031202872656129
:1018F000642070726F746563746564290000000071
:101900004C6576656C20312B20286E6F6E2D3078FB
:101910004141203D20726561642070726F7465637F
:1019200074656429000000000D0A464C41534820AC
:10193000544553540D0A00000D0A556E6C6F636BCD
:10194000696E6720464C4153482E2E2E0D0A00002A
:10195000456C617073656420287573293A20000016
:10196000256C75000D0A45726173696E6720464CDF
:101970004153482E2E2E0D0A000000000D0A507211
:101980006F6772616D6D696E6720464C4153482EDA
:101990002E2E0D0A000000000D0A4C6F636B696E5D
:1019A0006720464C4153482E2E2E0D0A00000000A1
:1019B0000D0A52656164696E672061204279746521
:1019C0002066726F6D20464C4153482E2E2E0D0A14
:1019D000000000005265616420427974653A20304D
:1019E0007800000025303258000000000D0A456CD8
:1019F000617073656420287573293A200000000027
:101A00000D0A52656164696E67206120576F7264C8
:101A10002066726F6D20464C4153482E2E2E0D0AC3
:101A200000000000464C415348205752495445207D
:101A3000262052454144204F4B0D0A00464C41534D
:101A400048205752495445202F20524541442046B2
:101A500041494C45440D0A000D0A2D2D2D2053659A
:101A60006375726974792046656174757265732057
:101A70002D2D2D0D0A000000524450206C65766516
:101A80006C3A2020202030782530325820202573D1
:101A90000D0A000057525031525F4355523A2020F0
:101AA000202030782530386C580D0A0057525031BC
:101AB000525F5052473A2020202030782530386C31
:101AC0005820202862697433313D30202D3E207328
:101AD0006563746F722033312070726F7465637444
:101AE0006564290D0A0000005752495445205052A0
:101AF0004F5445435420434F4E464947204F4B0DCA
:101B00000A00000057524954452050524F54454353
:101B10005420434F4E464947204641494C45440DC9
:101B20000A0000002841637469766174653A204FA9
:101B3000505453545254202B2073797374656D2084
:101B40007265736574290D0A000000000D0A2D2DC1
:101B50002D204461746120496E74656772697479DF
:101B600020436865636B202D2D2D0D0A00000000B9
:101B70004F4B00005665726966793A202020202577
:101B8000732020456C617073656420287573293A51
:101B900020256C750D0A0000464C415348204441F5
:101BA000544120494E54454752495459204F4B0DFA
:101BB0000A0000004641494C00000000464C4153D9
:101BC00048204441544120494E54454752495459B4
:101BD000204641494C45440D0A00000053746F7281
:101BE00065207461673A2025732020456C6170730D
:101BF000656420287573293A20256C750D0A00004C
:101C0000435243207461673A202020253032582502
:101C10003032582530325825303258202040307824
:101C20002530386C580D0A00232D302B2000686CAD
:101C30004C006566674546470030313233343536EF
:101C40003738394142434445460030313233343528
:101C5000363738396162636465660000F8B500BFE5
:041C6000F8B500BF14
:101C6400006CDC02080000200000000000000000FE
:101C74000000000000000000000000000000000060
:101C84000000000000000000000000000000000050
:101C94000000000000000000000000000000000040
:101CA4000000000000000000000000000000000030
:101CB4000000000000000000000000000000000020
:081CC400000000000000000018
:0400000508000F31AF
:00000001FF
