:020000040800F2
:100000000000022019090008150900081509000858
:10001000150900081509000815090008000000006E
:1000200000000000000000000000000015090008AA
:10003000150900080000000015090008150900084E
:1000400000000000000000000000000000000000B0
:100050000000000000000000000000009502000801
:10006000A5020008B5020008C5020008D502000874
:10007000E5020008F5020008050300081503000862
:1000800025030008390300084D0300086103000838
:1000900075030008890300089D03000800000000A4
:1000A0000000000000000000000000000000000050
:1000B0000000000000000000000000000000000040
:1000C0000000000000000000000000000000000030
:1000D0000000000000000000000000000000000020
:1000E0000000000000000000000000000000000010
:1000F0000000000000000000000000000000000000
:1001000000000000000000000000000000000000EF
:1001100000000000000000000000000000000000DF
:1001200000000000000000000000000000000000CF
:1001300000000000000000000000000000000000BF
:10014000B1030008000000000000000000000000F3
:10015000000000000000000000000000000000009F
:10016000000000000000000000000000000000008F
:10017000000000000000000000000000000000007F
:10018000000000000000000000000000000000006F
:10019000000000000000000000000000000000005F
:1001A000000000000000000000000000000000004F
:1001B000000000000000000000000000000000003F
:1001C000000000000000000000000000000000002F
:1001D000000000000000000000000000000000001F
:1001E000000000000000000000000000000000000F
:1001F00000000000000000000000000000000000FF
:1002000000000000000000000000000000000000EE
:1002100000000000000000000000000000000000DE
:1002200000000000000000000000000000000000CE
:1002300000000000000000000000000000000000BE
:100240007F2823D811B310B4114C002844F8301083
:1002500004EBC004626016DB0124410900F1604C2C
:100260001A01890000F01F0301F160410CF5644C94
:10027000D2B28CF8002004FA03F301F561410020AA
:1002800010BC0B607047002010BC70470120704705
:1002900004000020024A936B0BB1D06B18477047E3
:1002A00004000020024A136C0BB1506C18477047D1
:1002B00004000020024A936C0BB1D06C18477047C1
:1002C00004000020024A136D0BB1506D18477047AF
:1002D00004000020024A936D0BB1D06D184770479F
:1002E00004000020024A136E0BB1506E184770478D
:1002F00004000020024A936E0BB1D06E184770477D
:1003000004000020024A136F0BB1506F184770476A
:1003100004000020024A936F0BB1D06F184770475A
:1003200004000020034AD2F8803013B1D2F88400D0
:100330001847704704000020034AD2F8883013B1F0
:10034000D2F88C001847704704000020034AD2F806
:10035000903013B1D2F89400184770470400002081
:10036000034AD2F8983013B1D2F89C00184770476E
:1003700004000020034AD2F8A03013B1D2F8A40040
:100380001847704704000020034AD2F8A83013B180
:10039000D2F8AC001847704704000020034AD2F896
:1003A000B03013B1D2F8B4001847704704000020F1
:1003B000034AD2F8003213B1D2F80402184770474A
:1003C000040000204268D36913F00F0106D19B0698
:1003D00007D58368506A23B1C0B2184711629906E5
:1003E00000D47047536A704730B400244368AD4965
:1003F00002468B421C6037D0AB498B420DD0AB49D3
:100400008B4200F0F780AA498B4200F02581A94970
:100410008B4200F0B08001784BE0A749D1F89C00F6
:1004200040F40030C1F89C00D1F88C0040F001008D
:10043000C1F88C001178481E012840F288800029FC
:1004400040F08A819D48046824F0C0040460046878
:1004500044F080040460046A24F470440462046A72
:1004600044F4E044046224E09349D1F8A40040F449
:100470008040C1F8A400D1F88C0040F00100C1F820
:100480008C001178481E012840D9002940F0648171
:100490008A48046824F440140460046844F4001496
:1004A0000460446A24F470644462446A44F4E0647E
:1004B000446241F2883440F2A110814D1D6292F8ED
:1004C00001C0BCF1000F18BF20460024D8605C605A
:1004D0009C60002977D0012914BF0D2109217148A2
:1004E0001960834274D070498B4277D001F58061E6
:1004F0008B4279D001F580618B4200F0A78001F535
:1005000080618B4200F09C8030BC70476B480229B0
:10051000046824F440240460046844F40024046063
:10052000446A24F0F0044462446A44F07004446273
:10053000AED0634919625178002940F0C980012189
:10054000002040F2A114DC6058609860C3E75B486B
:100550000229046824F030040460046844F0200494
:100560000460046A24F470640462046A44F4E0647D
:100570000462DED166E75048D0F89C1041F4801147
:10058000C0F89C1011784C1E012C40F2BE8000294E
:1005900040F00481484CD4F88C0040F00800C4F8C6
:1005A0008C004848046824F030040460046844F077
:1005B00020040460046A24F470640462046A44F44D
:1005C0000064046275E705213648196083428AD1C8
:1005D00030BC332000233C49FFF732BE342030BC0E
:1005E00000233949FFF72CBE352030BC00233649A3
:1005F000FFF726BE3049D1F89C0040F48020C1F8B6
:100600009C00D1F88C0040F00200C1F88C001178F9
:10061000481E012864D9002940F0C0802B48046896
:1006200024F440040460046844F400040460446A50
:1006300024F470444462446A44F4E044446238E779
:10064000372030BC00232049FFF7FABD362030BCEC
:1006500000231D49FFF7F4BD1749D1F89C0040F471
:100660000020C1F89C00D1F88C0040F00100C1F8D6
:100670008C001178481E01287CD9002940F08E801A
:100680000E48046824F00C040460046844F0080474
:100690000460046A24F0F0040462046A44F08004F4
:1006A000046206E700380140004400400048004072
:1006B000004C004000500040000C02440000024288
:1006C000FF3B1200000C0242C50300080004024276
:1006D000002141F28830D860596099600921FEE616
:1006E00038480229046824F440140460046844F47F
:1006F00000140460446A24F470644462446A44F45C
:10070000E06444627FF415AF88E7D0F88C4002299A
:1007100044F00404C0F88C402B48046824F0407472
:100720000460046844F000740460446A24F4702493
:100730004462446A44F4002444623FF42BAF2349EA
:1007400019625178002936D00121002041F2883405
:10075000DC6058609860BEE61C481862507800283B
:100760003FF4EEAE002041F288340D21DC60586089
:100770009860B4E616480229046824F00304046073
:10078000046844F002040460046A24F00F04046264
:10079000046A44F008040462D1D171E70B4818627E
:1007A00050780028D1D140F2A1140D21DC605860AE
:1007B0009860196097E640F2A110D860596099607E
:1007C0008CE700BF0004024200080242FF3B120017
:1007D00000000242027043704160FFF705BE00BF97
:1007E0008C46097899B110B40D2442680A2909D0C1
:1007F000D3691B06FCD591621CF8011F0029F5D1B5
:1008000010BC7047D3691806FCD59462F0E77047B6
:100810000023024AC0E90023704700BF00200240C5
:1008200003685A69002A06DA0449054A99609A6001
:100830005869C00F70470020704700BF230167450B
:10084000AB89EFCD03461A680020536943F000439B
:100850005361704703681869C003FCD4586940F0BD
:10086000010058610A60186910F48030FBD15A69A0
:1008700022F001025A61704703681A69D203FCD45E
:100880004FF0FF305A6942F002025A6108605A691B
:1008900042F480325A61186910F48030FBD15A69F1
:1008A00022F002025A61704730B587B001A8FFF705
:1008B000AFFF00230122114903A8FFF78BFF104C63
:1008C000104903A8FFF78CFF0F4D01A8FFF7A8FF01
:1008D000214601A8FFF7D0FF21462A4601A8FFF7CD
:1008E000B9FF01A8FFF7AEFF236803A8AB420CBF16
:1008F00006490749FFF774FFFEE700BF00440040C8
:1009000000F00308A009000878563412B009000866
:10091000C4090008FEE700BF0F48104A08B590421E
:1009200007D2013A121A22F003020D49043200F0F4
:1009300021F80C480C4A904207D2013A121A22F0D0
:1009400003020021043200F022F8084B084A1A6022
:10095000FFF7AAFFFEE700BF000000200400002010
:10096000E409000804000020040400200000002026
:10097000006CDC020A44431E914200D1704710B55E
:1009800011F8014B914203F8014FF9D110BD024417
:100990000346934200D1704703F8011BF9E70000BA
:1009A0000D0A464C41534820544553540D0A00004B
:1009B000464C415348205752495445204F4B0D0A4D
:1009C00000000000464C41534820575249544520EE
:1009D0004641494C45440D0A00000000F8B500BFEF
:0409E000F8B500BFA7
:0409E400006CDC02C5
:0400000508000919CD
:00000001FF
