:020000040800F2
:1000000000000220F9070008F5070008F5070008BE
:10001000F5070008F5070008F507000800000000D4
:10002000000000000000000000000000F5070008CC
:10003000F507000800000000F5070008F5070008B4
:1000400000000000000000000000000000000000B0
:100050000000000000000000000000002D04000867
:100060003D0400084D0400085D0400086D0400080C
:100070007D0400088D0400089D040008AD040008FC
:10008000BD040008D1040008E5040008F9040008D4
:100090000D05000821050008350500084905000880
:1000A0005D05000871050008850500089905000830
:1000B000AD050008C1050008D505000800000000D6
:1000C0000000000000000000000000000000000030
:1000D0000000000000000000000000000000000020
:1000E0000000000000000000000000000000000010
:1000F0000000000000000000000000000000000000
:10010000000000000000000000000000E9050008F9
:10011000FD0500081106000825060008390600083C
:1001200000000000000000000000000000000000CF
:1001300000000000000000000000000000000000BF
:1001400000000000000000000000000000000000AF
:10015000000000000000000000000000000000009F
:10016000000000000000000000000000000000008F
:10017000000000000000000000000000000000007F
:10018000000000000000000000000000000000006F
:10019000000000000000000000000000000000005F
:1001A000000000000000000000000000000000004F
:1001B000000000000000000000000000000000003F
:1001C000000000000000000000000000000000002F
:1001D000000000000000000000000000000000001F
:1001E000000000000000000000000000000000000F
:1001F00000000000000000000000000000000000FF
:1002000000000000000000000000000000000000EE
:1002100000000000000000000000000000000000DE
:1002200000000000000000000000000000000000CE
:1002300000000000000000000000000000000000BE
:1002400000238272C0E900130381C372704700BFAC
:10025000002849D002680146002A45D002F13F43F8
:1002600003F57E03B3F5805F2FD22448244B9042E0
:1002700036D8A2F1500C1CF07F0FACEB03002FD14D
:1002800010B41F4CC009A34208724B602ED01D4809
:10029000D0F8883043F00203C0F8883000200223F1
:1002A00050615361536913F00203FBD14FF4FE44D4
:1002B000D4601360136453649364D3641365D36789
:1002C000CB724B72184610BC704702F14043A3F545
:1002D0000433B3F5805F03D20B480C4B9042C8D96E
:1002E000012318464B727047012070470548D0F82B
:1002F000883043F00103C0F88830CFE75000024057
:1003000000000240000C0244501002400010024065
:1003100070B4039DD8B10468CCB1C3B1666926F04E
:1003200001066661807AE16410F0FD0F00F1FF3094
:1003300008BF45F0080522650128A364049B98BF07
:1003400045F4002525640020636470BC70470120DB
:1003500070BC7047034678B102686AB100204FF460
:10036000FE414FF0020CD160D872516941F0010199
:10037000516183F809C0704701207047034658B1A6
:1003800002684AB14FF0000C5169604621F001014A
:10039000516183F809C0704701207047024658B187
:1003A000006820B1036913F4807301D118467047C7
:1003B0000023012053727047704700BF82B0019044
:1003C000019B5A1E01922BB100BF019B5A1E019244
:1003D000002BF9D102B070477F2823D811B310B495
:1003E000114C002844F8301004EBC004626016DBA6
:1003F0000124410900F1604C1A01890000F01F033B
:1004000001F160410CF5644CD2B28CF8002004FA82
:1004100003F301F56141002010BC0B607047002020
:1004200010BC70470120704704000020024A936B03
:100430000BB1D06B1847704704000020024A136CC0
:100440000BB1506C1847704704000020024A936CAF
:100450000BB1D06C1847704704000020024A136D9E
:100460000BB1506D1847704704000020024A936D8D
:100470000BB1D06D1847704704000020024A136E7C
:100480000BB1506E1847704704000020024A936E6B
:100490000BB1D06E1847704704000020024A136F5A
:1004A0000BB1506F1847704704000020024A936F49
:1004B0000BB1D06F1847704704000020034AD2F8F0
:1004C000803013B1D2F88400184770470400002030
:1004D000034AD2F8883013B1D2F88C00184770471D
:1004E00004000020034AD2F8903013B1D2F89400EF
:1004F0001847704704000020034AD2F8983013B11F
:10050000D2F89C001847704704000020034AD2F834
:10051000A03013B1D2F8A40018477047040000209F
:10052000034AD2F8A83013B1D2F8AC00184770478C
:1005300004000020034AD2F8B03013B1D2F8B4005E
:100540001847704704000020034AD2F8B83013B1AE
:10055000D2F8BC001847704704000020034AD2F8C4
:10056000C03013B1D2F8C40018477047040000200F
:10057000034AD2F8C83013B1D2F8CC0018477047FC
:1005800004000020034AD2F8D03013B1D2F8D400CE
:100590001847704704000020034AD2F8D83013B13E
:1005A000D2F8DC001847704704000020034AD2F854
:1005B000E03013B1D2F8E40018477047040000207F
:1005C000034AD2F8E83013B1D2F8EC00184770476C
:1005D00004000020034AD2F8F03013B1D2F8F4003E
:1005E0001847704704000020034AD2F8983113B12D
:1005F000D2F89C011847704704000020034AD2F843
:10060000A03113B1D2F8A4011847704704000020AC
:10061000034AD2F8A83113B1D2F8AC011847704799
:1006200004000020034AD2F8B03113B1D2F8B4016B
:100630001847704704000020034AD2F8B83113B1BC
:10064000D2F8BC0118477047040000200D2801D0E3
:100650000A280AD108B50D21064800F075FBBDE84F
:1006600008400A21034800F06FBB0146014800F032
:100670006BBB00BF6404002070B500230222424916
:10068000424800F0EFFA002241494248FFF7D8FD06
:100690004048FFF7DDFD01223F494048FFF7D0FD0C
:1006A0003E48FFF7D5FD3E49384800F055FB3D492F
:1006B000364800F051FB3C49344800F04DFB3B49C3
:1006C000324800F049FB40223949304800F05CFBD9
:1006D00038492E4800F040FB35492C4800F03CFBDF
:1006E00035492A4800F038FB3449284800F034FBEB
:1006F0003349264800F030FB1323324A254923486A
:1007000000F0CAFA2348FFF739FE204800F0B8FA93
:100710002D491E4800F020FB2C491C4800F01CFB12
:100720002B491A4800F018FB08232A4A1B4917488E
:1007300000F0E0FA1948FFF721FE144800F0A6FA8D
:100740002549124800F008FB244C104E04F108051E
:1007500014F8011F304600F0F7FAAC42F8D12049F6
:100760000A4800F0F9FA1F49084800F0F5FA1E4956
:10077000064800F0F1FA1D49044800F079FA1C4CD3
:100780002046FFF71BFEFBE7004400406404002006
:100790005000024050040020D000024044040020D9
:1007A000140E0008300E0008540E0008700E0008E9
:1007B00004040020940E0008DC0E0008A00E0008BF
:1007C000B40E0008980F0008CC0E0008E00E0008D8
:1007D000F80E00085C040020140F00085B040020E1
:1007E000200F0008380F00085C0F00084D060008B5
:1007F00040420F00FEE700BF0F48104A08B5904284
:1008000007D2013A121A22F003020D49043200F015
:10081000EBFA0C480C4A904207D2013A121A22F025
:1008200003020021043200F0ECFA084B084A1A6077
:10083000FFF722FFFEE700BF0000002004000020B9
:10084000B40F000804000020700400200000002005
:10085000006CDC024268D36913F00F0106D19B06DD
:1008600007D58368506A23B1C0B218471162990650
:1008700000D47047536A704730B400244368AD49D0
:1008800002468B421C6037D0AB498B420DD0AB493E
:100890008B4200F0F780AA498B4200F02581A949DC
:1008A0008B4200F0B08001784BE0A749D1F89C0062
:1008B00040F40030C1F89C00D1F88C0040F00100F9
:1008C000C1F88C001178481E012840F28880002968
:1008D00040F08A819D48046824F0C00404600468E4
:1008E00044F080040460046A24F470440462046ADE
:1008F00044F4E044046224E09349D1F8A40040F4B5
:100900008040C1F8A400D1F88C0040F00100C1F88B
:100910008C001178481E012840D9002940F06481DC
:100920008A48046824F440140460046844F4001401
:100930000460446A24F470644462446A44F4E064E9
:10094000446241F2883440F2A110814D1D6292F858
:1009500001C0BCF1000F18BF20460024D8605C60C5
:100960009C60002977D0012914BF0D21092171480D
:100970001960834274D070498B4277D001F5806151
:100980008B4279D001F580618B4200F0A78001F5A0
:1009900080618B4200F09C8030BC70476B4802291C
:1009A000046824F440240460046844F400240460CF
:1009B000446A24F0F0044462446A44F070044462DF
:1009C000AED0634919625178002940F0C9800121F5
:1009D000002040F2A114DC6058609860C3E75B48D7
:1009E0000229046824F030040460046844F0200400
:1009F0000460046A24F470640462046A44F4E064E9
:100A00000462DED166E75048D0F89C1041F48011B2
:100A1000C0F89C1011784C1E012C40F2BE800029B9
:100A200040F00481484CD4F88C0040F00800C4F831
:100A30008C004848046824F030040460046844F0E2
:100A400020040460046A24F470640462046A44F4B8
:100A50000064046275E705213648196083428AD133
:100A600030BC332000233C49FFF7B6BC342030BCF7
:100A700000233949FFF7B0BC352030BC002336498C
:100A8000FFF7AABC3049D1F89C0040F48020C1F89F
:100A90009C00D1F88C0040F00200C1F88C00117865
:100AA000481E012864D9002940F0C0802B48046802
:100AB00024F440040460046844F400040460446ABC
:100AC00024F470444462446A44F4E044446238E7E5
:100AD000372030BC00232049FFF77EBC362030BCD5
:100AE00000231D49FFF778BC1749D1F89C0040F45A
:100AF0000020C1F89C00D1F88C0040F00100C1F842
:100B00008C001178481E01287CD9002940F08E8085
:100B10000E48046824F00C040460046844F00804DF
:100B20000460046A24F0F0040462046A44F080045F
:100B3000046206E7003801400044004000480040DD
:100B4000004C004000500040000C024400000242F3
:100B5000FF3B1200000C024255080008000402424C
:100B6000002141F28830D860596099600921FEE681
:100B700038480229046824F440140460046844F4EA
:100B800000140460446A24F470644462446A44F4C7
:100B9000E06444627FF415AF88E7D0F88C40022906
:100BA00044F00404C0F88C402B48046824F04074DE
:100BB0000460046844F000740460446A24F47024FF
:100BC0004462446A44F4002444623FF42BAF234956
:100BD00019625178002936D00121002041F2883471
:100BE000DC6058609860BEE61C48186250780028A7
:100BF0003FF4EEAE002041F288340D21DC605860F5
:100C00009860B4E616480229046824F003040460DE
:100C1000046844F002040460046A24F00F040462CF
:100C2000046A44F008040462D1D171E70B481862E9
:100C300050780028D1D140F2A1140D21DC60586019
:100C40009860196097E640F2A110D86059609960E9
:100C50008CE700BF0004024200080242FF3B120082
:100C600000000242027043704160FFF705BE00BF02
:100C700042688160136843F020031360704700BF2F
:100C80004268936823F080039360704742689368DA
:100C900023F040039360704770B582B030B30D46C7
:100CA00021B3114612B30BB306464268D46920063D
:100CB000FCD5002040F20F442832CDE9000428463C
:100CC000FFF726FB044690B972682846936843F004
:100CD00080039360FFF73EFB044640B92846FFF7C8
:100CE0005DFB0028FAD0204602B070BD01242046EA
:100CF00002B070BD70B582B018B10C4609B102B136
:100D00001BB90126304602B070BD41680E2605466B
:100D100000202431CDE900062046FFF7F9FA064607
:100D20000028EFD16A682046936843F0400393603F
:100D3000FFF710FB06460028E4D12046FFF72EFB04
:100D40000028FAD0DEE700BF4268D3691B06FCD555
:100D5000C9B29162704700BF8C46097899B110B44E
:100D60000D2442680A2909D0D3691B06FCD591627B
:100D70001CF8011F0029F5D110BC7047D369180673
:100D8000FCD59462F0E7704730B50446501E0D461E
:100D900026D04FF0000C01F1FF3E6368DA6992063D
:100DA000FCD5596AC9B20A290FD00D290DD0DA69CC
:100DB0001206FCD50CF1010C844599620EF8011F56
:100DC000EBD1002365442B7030BDDA691006FCD5E9
:100DD0000D229A62DA691106FCD50A2265449A62EC
:100DE00000232B7030BD00BF0A44431E914200D146
:100DF000704710B511F8014B914203F8014FF9D13A
:100E000010BD02440346934200D1704703F8011B12
:100E1000F9E700003D3D3D20506F6C6C696E672026
:100E200054582074657374203D3D3D0D0A00000048
:100E3000496620796F752063616E20726561642058
:100E4000746869732C20545820776F726B73210D6E
:100E50000A0000000D0A3D3D3D20506F6C6C696E2C
:100E6000672052582074657374203D3D3D0D0A0083
:100E70005479706520736F6D657468696E67206161
:100E80006E6420707265737320456E7465723A0DDE
:100E90000A000000596F752074797065643A20006B
:100EA000506F6C6C696E6720525820776F726B734D
:100EB000210D0A000D0A3D3D3D20444D412054586E
:100EC0002074657374203D3D3D0D0A00444D412062
:100ED000545820636F6D706C657465210D0A0000B5
:100EE0000D0A3D3D3D20444D41205258207465730C
:100EF00074203D3D3D0D0A0053656E6420657861A8
:100F000063746C7920382062797465732E2E2E0DEF
:100F10000A00000052656365697665643A20000046
:100F20000D0A444D4120525820636F6D706C6574FA
:100F300065210D0A000000000D0A3D3D3D20496E6F
:100F400074657272757074205258206563686F20E2
:100F500074657374203D3D3D0D0A00005479706541
:100F6000206368617261637465727320746F2073AB
:100F70006565207468656D206563686F6564202809
:100F8000696E746572727570742D64726976656EBF
:100F9000292E0D0A0000000048656C6C6F207669F0
:100FA0006120444D41205458210D0A00F8B500BF7E
:040FB000F8B500BFD1
:040FB400006CDC02EF
:04000005080007F9EF
:00000001FF
