:020000040800F2
:1000000000000220090D0008050D0008050D00087C
:10001000050D0008050D0008050D00080000000092
:10002000000000000000000000000000050D0008B6
:10003000050D000800000000050D0008050D000872
:1000400000000000000000000000000000000000B0
:10005000000000000000000000000000250400086F
:10006000350400084504000855040008650400082C
:10007000750400088504000895040008A50400081C
:10008000B5040008C9040008DD040008F1040008F4
:1000900005050008190500082D05000800000000EE
:1000A0000000000000000000000000000000000050
:1000B0000000000000000000000000000000000040
:1000C0000000000000000000000000000000000030
:1000D0000000000000000000000000000000000020
:1000E0000000000000000000000000000000000010
:1000F0000000000000000000000000000000000000
:1001000000000000000000000000000000000000EF
:1001100000000000000000000000000000000000DF
:1001200000000000000000000000000000000000CF
:1001300000000000000000000000000000000000BF
:100140004105000800000000000000000000000061
:10015000000000000000000000000000000000009F
:10016000000000000000000000000000000000008F
:10017000000000000000000000000000000000007F
:10018000000000000000000000000000000000006F
:10019000000000000000000000000000000000005F
:1001A000000000000000000000000000000000004F
:1001B000000000000000000000000000000000003F
:1001C000000000000000000000000000000000002F
:1001D000000000000000000000000000000000001F
:1001E000000000000000000000000000000000000F
:1001F00000000000000000000000000000000000FF
:1002000000000000000000000000000000000000EE
:1002100000000000000000000000000000000000DE
:1002200000000000000000000000000000000000CE
:1002300000000000000000000000000000000000BE
:1002400000210B4B10B4D3F88C200A4C42F400323E
:10025000C3F88C205A6E42F400325A665A6E22F469
:1002600000325A660460017110BC8160704700BFA3
:10027000000C024400040C420146064A03681A605E
:100280005A6AD207FCD5586A10F00200FBD1986078
:100290008860704704000600002967D0F0B5144656
:1002A000002A61D0032A054602F0030046D92A68D5
:1002B000536ADE07FCD5A708112FBE460E4628BF9D
:1002C0004FF0110E4FF0000C56F8043B0CF1010CEE
:1002D0001BBAE6455360F7D8002FA7EB0E074FEA8D
:1002E0008E0E08BF4FF0040E0F2F71441AD93E46F0
:1002F00001F1400EAEF1400C536ADB07FCD55CF80F
:10030000043B1BBAF4455360F9D1103E0F2E0CF19B
:10031000400EEFD8A7F110031B09013301EB831145
:1003200007F00F0757B1536ADB07FCD501EB8706CF
:1003300051F8043B1BBA8E425360F9D178B11822B0
:1003400000260F1811F8013B9340B94246EA030614
:10035000A2F10802F6D12B68C00098605E60AB681D
:1003600000202344AB60F0BD0120F0BD01207047A8
:1003700051B310B58268036802F00302D0005A6AD4
:100380009407FCD440F4807098605A6A9007FCD5BA
:100390005A6A1207FCD4BFF34F8F0B460B4C01F186
:1003A000200E641AE25804334FEA126C100C110A42
:1003B000734503F804CC03F8030C03F8021C03F89C
:1003C000012CEFD1002010BD0120704710070C4216
:1003D0007F2823D811B310B4114C002844F83010F2
:1003E00004EBC004626016DB0124410900F1604C9B
:1003F0001A01890000F01F0301F160410CF5644C03
:10040000D2B28CF8002004FA03F301F56141002018
:1004100010BC0B607047002010BC70470120704773
:1004200068000020024A936B0BB1D06B18477047ED
:1004300068000020024A136C0BB1506C18477047DB
:1004400068000020024A936C0BB1D06C18477047CB
:1004500068000020024A136D0BB1506D18477047B9
:1004600068000020024A936D0BB1D06D18477047A9
:1004700068000020024A136E0BB1506E1847704797
:1004800068000020024A936E0BB1D06E1847704787
:1004900068000020024A136F0BB1506F1847704775
:1004A00068000020024A936F0BB1D06F1847704765
:1004B00068000020034AD2F8803013B1D2F88400DB
:1004C0001847704768000020034AD2F8883013B1FB
:1004D000D2F88C001847704768000020034AD2F811
:1004E000903013B1D2F8940018477047680000208C
:1004F000034AD2F8983013B1D2F89C0018477047DD
:1005000068000020034AD2F8A03013B1D2F8A4004A
:100510001847704768000020034AD2F8A83013B18A
:10052000D2F8AC001847704768000020034AD2F8A0
:10053000B03013B1D2F8B4001847704768000020FB
:10054000034AD2F8003213B1D2F8040218477047B8
:10055000680000204268D36913F00F0106D19B06A2
:1005600007D58368506A23B1C0B218471162990653
:1005700000D47047536A704730B400244368AD49D3
:1005800002468B421C6037D0AB498B420DD0AB4941
:100590008B4200F0F780AA498B4200F02581A949DF
:1005A0008B4200F0B08001784BE0A749D1F89C0065
:1005B00040F40030C1F89C00D1F88C0040F00100FC
:1005C000C1F88C001178481E012840F2888000296B
:1005D00040F08A819D48046824F0C00404600468E7
:1005E00044F080040460046A24F470440462046AE1
:1005F00044F4E044046224E09349D1F8A40040F4B8
:100600008040C1F8A400D1F88C0040F00100C1F88E
:100610008C001178481E012840D9002940F06481DF
:100620008A48046824F440140460046844F4001404
:100630000460446A24F470644462446A44F4E064EC
:10064000446241F2883440F2A110814D1D6292F85B
:1006500001C0BCF1000F18BF20460024D8605C60C8
:100660009C60002977D0012914BF0D210921714810
:100670001960834274D070498B4277D001F5806154
:100680008B4279D001F580618B4200F0A78001F5A3
:1006900080618B4200F09C8030BC70476B4802291F
:1006A000046824F440240460046844F400240460D2
:1006B000446A24F0F0044462446A44F070044462E2
:1006C000AED0634919625178002940F0C9800121F8
:1006D000002040F2A114DC6058609860C3E75B48DA
:1006E0000229046824F030040460046844F0200403
:1006F0000460046A24F470640462046A44F4E064EC
:100700000462DED166E75048D0F89C1041F48011B5
:10071000C0F89C1011784C1E012C40F2BE800029BC
:1007200040F00481484CD4F88C0040F00800C4F834
:100730008C004848046824F030040460046844F0E5
:1007400020040460046A24F470640462046A44F4BB
:100750000064046275E705213648196083428AD136
:1007600030BC332000233C49FFF732BE342030BC7C
:1007700000233949FFF72CBE352030BC0023364911
:10078000FFF726BE3049D1F89C0040F48020C1F824
:100790009C00D1F88C0040F00200C1F88C00117868
:1007A000481E012864D9002940F0C0802B48046805
:1007B00024F440040460046844F400040460446ABF
:1007C00024F470444462446A44F4E044446238E7E8
:1007D000372030BC00232049FFF7FABD362030BC5B
:1007E00000231D49FFF7F4BD1749D1F89C0040F4E0
:1007F0000020C1F89C00D1F88C0040F00100C1F845
:100800008C001178481E01287CD9002940F08E8088
:100810000E48046824F00C040460046844F00804E2
:100820000460046A24F0F0040462046A44F0800462
:10083000046206E7003801400044004000480040E0
:10084000004C004000500040000C024400000242F6
:10085000FF3B1200000C0242550500080004024252
:10086000002141F28830D860596099600921FEE684
:1008700038480229046824F440140460046844F4ED
:1008800000140460446A24F470644462446A44F4CA
:10089000E06444627FF415AF88E7D0F88C40022909
:1008A00044F00404C0F88C402B48046824F04074E1
:1008B0000460046844F000740460446A24F4702402
:1008C0004462446A44F4002444623FF42BAF234959
:1008D00019625178002936D00121002041F2883474
:1008E000DC6058609860BEE61C48186250780028AA
:1008F0003FF4EEAE002041F288340D21DC605860F8
:100900009860B4E616480229046824F003040460E1
:10091000046844F002040460046A24F00F040462D2
:10092000046A44F008040462D1D171E70B481862EC
:1009300050780028D1D140F2A1140D21DC6058601C
:100940009860196097E640F2A110D86059609960EC
:100950008CE700BF0004024200080242FF3B120085
:1009600000000242027043704160FFF705BE00BF05
:100970008C46097899B110B40D2442680A2909D02F
:10098000D3691B06FCD591621CF8011F0029F5D123
:1009900010BC7047D3691806FCD59462F0E7704725
:1009A000D2B110B40A4443680C48013902F1FF3C4B
:1009B00011F8012F1209845CDA691206FCD59C62D9
:1009C0000A7802F00F02845CDA691206FCD58C45C5
:1009D0009C62EDD110BC7047704700BFD416000870
:1009E00030B51568D2F804E0D2F808C0D4680560C4
:1009F000C0F804E0C0F808C0C460D2F814E0D2F82F
:100A000018C0D4691569C0F814E00561C0F818C0B1
:100A1000C4611C68D3F804E0D3F808C0DA68046243
:100A2000C0F824E0C0F828C0C2621C69D3F814E002
:100A3000D3F818C0DA690463C0F834E0C0F838C0ED
:100A4000C263016430BD00BF2DE9F0410546006C72
:100A50001E46A0B0A0B30C461746FFF70DFC21467A
:100A60006C463A46286CFFF717FC2146286CFFF7C6
:100A70007FFC0FCC0DF1200EF0460DF1400C6746C7
:100A8000AEE80F0094E80F008EE80F00B8E80F0002
:100A9000ACE80F009EE80F008CE80F0018AD0FCFF8
:100AA0000FC59CE80F0085E80F002022314618A8EA
:100AB00000F058F9B0FA80F0400920B0BDE8F081AC
:100AC0006C462546186859689A68DB680FC5306916
:100AD0007169B269F3690FC5CBE700BF70B5364CD9
:100AE0009EB00023012220463449FFF73BFF344AE1
:100AF00034490AA800F08CF820463349FFF738FF44
:100B000020463249FFF734FF20463149FFF730FFD6
:100B100020463049FFF72CFF20462F49FFF728FFDA
:100B200020462E49FFF724FF4FF4A5532C4A2D49A8
:100B300000940AA800F08CF820462B49FFF718FF14
:100B40002A4D202220462A49FFF72AFF204629491C
:100B5000FFF70EFF264B2022274900950AA800F038
:100B600067F8264A2649244E002808BF1146204629
:100B7000FFF7FEFE0FCE009599250DF1080CACE8AD
:100B80000F0096E80F008CE80F002022184B02A9F6
:100B90000AA88DF8085000F04BF80146194A1A4B84
:100BA0002046002914BF11461946FFF7E1FE2046F2
:100BB0001649FFF7DDFEFEE7680400200044004010
:100BC000C8190008A819000880170008A417000811
:100BD000D0170008FC1700082C180008601800083F
:100BE000241900080419000888180008881900084A
:100BF000681900082817000844190008E8160008BA
:100C0000041700082C17000854170008F0180008F3
:100C100070B504460D461646FFF712FB33462A46CA
:100C2000214604F10C00BDE87040FFF7D9BE00BFBB
:100C300000B583B0DDF810C00C30CDF800C0FFF770
:100C400003FFB0FA80F0400903B05DF804FB00BF79
:100C50002DE9F04796B01E9D234E07468A4628464A
:100C6000224991469846FFF783FE34685021234677
:100C70001F4A02A800F09CF804F16044284602A92B
:100C8000FFF776FEB4F5003F284626D81949FFF74E
:100C90006FFE534642463146CDF8009007F10C00F6
:100CA000FFF7D2FE88B128461349FFF761FE33688B
:100CB000726872B64FF0E021C1F8086D83F30888BE
:100CC0001047022016B0BDE8F08728460B49FFF711
:100CD0004FFE022016B0BDE8F0870949FFF748FE35
:100CE000022016B0BDE8F08700000108E8190008EE
:100CF0000C1A0008781A0008A41A0008DC1A000868
:100D0000241A0008FEE700BF0F48104A08B59042B9
:100D100007D2013A121A22F003020D49043200F000
:100D200031F80C480C4A904207D2013A121A22F0CC
:100D300003020021043200F032F8084B084A1A601E
:100D4000FFF7CCFEFEE700BF000000206800002097
:100D5000601B0008680000208804002000000020BC
:100D6000006CDC020139024410B5904201D1002030
:100D700005E0037811F8014FA34201D0181B10BD04
:100D80000130F2E70A44431E914200D1704710B58A
:100D900011F8014B914203F8014FF9D110BD024403
:100DA0000346934200D1704703F8011BF9E70000A6
:100DB0000CB4184B30B50C1E9DB01D6808DA8B239F
:100DC0004FF0FF302B601DB0BDE8304002B07047DF
:100DD0004FF402730290069002A9ADF8143014BFCC
:100DE00004F1FF332346209A2846049307934FF6D5
:100DF000FF73ADF8163021AB019300F069F8431C86
:100E0000BCBF8B232B60002CDDD0029B00221A700C
:100E1000D9E700BF040000202DE9F0478E68824624
:100E20000C4690469E421F4638D88A8912F4906F2D
:100E300032D0256801330969A5EB0109656905EB25
:100E400045054B4405EBD5756D109D4238BF1D46D9
:100E5000530531D5294600F063FB064650B90C23F3
:100E60004FF0FF30CAF80030A38943F04003A3815C
:100E7000BDE8F0874A462169FFF784FFA38923F480
:100E8000906343F08003A38126614E446561A5EB26
:100E9000090526603E46A560BE4200D93E46324660
:100EA0004146206800F0B8FAA36800209B1BA360AD
:100EB000236833442360DBE72A4600F0A5FB06469F
:100EC0000028E1D12169504600F0C0FAC7E70000D0
:100ED0002DE9F04F98468B899DB007461B060D46BD
:100EE00014460ED50B6963B9402100F019FB286048
:100EF000286120B90C233B604FF0FF30D1E0402344
:100F00006B610023CDF80C804FF00109DFF8AC8154
:100F1000099320238DF8293030238DF82A30234679
:100F20009A4613F8012B0AB1252AF9D1BAEB040B22
:100F30000BD05B46224629463846FFF76DFF01304D
:100F400000F0AA80099A5A4409929AF80030002BBE
:100F500000F0A28000234FF0FF320AF1010A04934F
:100F600007938DF853301A93CDE905235446052293
:100F7000524814F8011B00F041FA049AD8B9D0067F
:100F800044BF20238DF85330110744BF2B238DF825
:100F900053309AF800302A2B15D0079A5446002077
:100FA0004FF00A0C214611F8013B303B092B4ED97A
:100FB000B0B1079214E0A0EB0803A24609FA03F3CC
:100FC00013430493D2E7039B191D1B68002B039165
:100FD000BBBF5B4242F0020207930793B8BF049283
:100FE00023782E2B0CD163782A2B35D1039B023426
:100FF0001A1D1B68002B0392B8BF4FF0FF330593F7
:10100000DFF8BCA003222178504600F0F7F940B188
:101010004023A0EB0A00013403FA00F0049B0343D1
:10102000049314F8011B062226488DF8281000F0BE
:10103000E5F9002838D0244B1BBB039B073323F072
:10104000070308330393099B3344099367E70CFBB9
:1010500002320C460120A5E7002301344FF00A0CB0
:1010600019460593204610F8012B303A092A03D976
:10107000002BC5D00591C3E70CFB012104460123D9
:10108000F0E703AB2A4604A9384600930F4B00E073
:1010900000BF421C0646D6D1AB895B063FF52CAF9C
:1010A00009981DB0BDE8F08F03AB2A4604A9384665
:1010B0000093064B00F07CF8EBE700BF241B000810
:1010C0002A1B00082E1B000800000000190E000853
:1010D0002DE9F047164699468A6807460B690C4683
:1010E000DDF820809342B8BF1346336091F8432067
:1010F0000AB1013333602368990642BF3368023373
:101100003360256815F0060506D104F1190AE36875
:1011100032689B1AAB4229DC94F84320131E2268E4
:1011200018BF012392062ED404F1430249463846E3
:10113000C047013021D023681A3454F80E5C03F004
:10114000060332680026042B54F8123C08BFAD1A7F
:1011500054F80A2C14BF002525EAE5759342C4BF54
:101160009B1AED18B5421AD1002008E0012352461F
:1011700049463846C047013003D14FF0FF30BDE843
:10118000F0870135C3E7E1185A1C302002332244AE
:1011900081F8430094F8451082F84310C4E7012316
:1011A000224649463846C0470130E6D00136D9E7E5
:1011B0002DE9FF470F7E914680460C46782F9A46D0
:1011C0000C9D01F1430207D8622F0AD8002F00F0CE
:1011D000D880582F00F0A38004F1420584F84270B3
:1011E0003AE0A7F16303152BF6D801A151F823F0DB
:1011F000491200085D120008D9110008D911000831
:10120000D9110008D91100085D120008D911000891
:10121000D9110008D9110008D91100086913000874
:101220008D1200084B130008D9110008D9110008CD
:101230008B130008D91100088D120008D91100087D
:10124000D9110008531300082B681A1D1B682A6067
:1012500004F1420584F842300123A3E020682968A4
:10126000060601F104030AD50E682B60002E03DA8E
:101270002D23764284F843305E480A2319E00E6835
:1012800010F0400F2B6018BF36B2EFE72B682068D4
:10129000191D2960010601D51E6802E04606FBD52E
:1012A0001E886F2F53480CBF08230A23002184F89F
:1012B00043106568002DA560A2BF216821F00401DC
:1012C00021600EB9002D4DD01546B6FBF3F103FB9E
:1012D0001167C75D05F8017D37460E46BB42F4D95C
:1012E000082B0BD12368DE0708D523696168994272
:1012F000DEBF302305F8013C05F1FF35521B2261AA
:101300004B4603AA21464046CDF800A0FFF7E0FE79
:1013100001304CD14FF0FF3004B0BDE8F0873548C4
:1013200081F845702968236851F8046B29601D060F
:1013300014D5DF0744BF43F0200323601EB92368A0
:1013400023F0200323601023B0E7236843F0200339
:1013500023607823284884F84530E3E7590648BFDE
:10136000B6B2E6E71546BBE72B682668181D61692B
:10137000286035061B6801D5196002E07006FBD5B0
:101380001980002315462361BAE72B6800211A1D36
:101390002A601D686268284600F030F808B1401BDA
:1013A000606063682361002384F84330A8E7236901
:1013B0002A4649464046D0470130ABD023689B07B8
:1013C00013D4E068039B9842B8BF1846A4E70123F2
:1013D000324649464046D04701309BD00135E3684C
:1013E00003995B1AAB42F2DCEBE7002504F1190626
:1013F000F5E700BF351B0008461B0008C9B20346CD
:10140000024410B59342184601D1002003E004784D
:1014100001338C42F6D110BD884210B501EB0204B5
:1014200002D98442234607D8431EA14208D011F8AE
:10143000012B03F8012FF8E7024401468A4200D14C
:1014400010BD13F8014D02F8014DF7E738B5054618
:10145000002941D051F8043C0C1F002BB8BFE41800
:1014600000F012F91D4A136833B96360146028460E
:10147000BDE8384000F00EB9A34208D92068211811
:101480008B4201BF19685B6809182160EDE71A46B5
:101490005B680BB1A342FAD911685018A0420BD176
:1014A00020680144501811608342E0D118685B68DD
:1014B000014453601160DAE702D90C232B60D6E7B0
:1014C000206821188B4202BF19685B6809186360A5
:1014D00008BF21605460CAE738BD00BF7404002013
:1014E00070B50E4E0C460546316811B900F0BCF8D7
:1014F00030602146284600F0B7F8431C0AD0C41CCF
:1015000024F00304A04207D0211A284600F0ACF8CA
:10151000013001D14FF0FF34204670BD7804002027
:101520002DE9F041CD1C074625F0030508350C2DAB
:1015300038BF0C25002D01DBA94205D90C2300265C
:101540003B603046BDE8F0812E4E00F09DF83368D8
:101550001C4634BB29463846FFF7C2FF431C0446ED
:101560004DD134682646002E40D123683146384696
:1015700004EB030800F078F880453AD12168033580
:1015800038466D1A25F0030508350C2D38BF0C259B
:101590002946FFF7A5FF01302BD023682B44236099
:1015A0000EE02268521B1ED40B2A16D96119A342E1
:1015B000256018BF5960636808BF316062514B6095
:1015C00004F10B06384600F065F8231D26F00706E7
:1015D000F21AB6D09B1BA350B3E76268A3420CBFBC
:1015E00032605A60ECE723466468B2E734467668B6
:1015F000B9E70C2338463B6000F04CF8A1E72560C2
:10160000DEE700BF740400202DE9F0418046144657
:101610000E4621B91146BDE8F041FFF781BF2AB956
:101620002546FFF713FF2846BDE8F08100F038F8A3
:101630008442074602D8B4EB500F12D821464046E8
:10164000FFF76EFF05460028EDD0BC42224631462A
:1016500028BF3A46FFF796FB31464046FFF7F6FEB5
:10166000E1E73546DFE7000038B50023054D0446C5
:1016700008462B6000F01EF8431C02D12B6803B112
:10168000236038BD7C040020014800F011B800BF81
:1016900080040020014800F00CB800BF8004002046
:1016A00051F8043C181F002BBCBF0B58C0187047E2
:1016B00070477047054A0346106810B10344136031
:1016C0007047034803441360704700BF8404002040
:1016D000880400203031323334353637383961628E
:1016E0006364656600000000202047656E75696EC2
:1016F0006520696D61676520203A20504153530D84
:101700000A000000202047656E75696E6520696DCE
:1017100061676520203A204641494C2028756E6556
:1017200078706563746564290D0A00002020546197
:101730006D706572656420696D616765203A204649
:1017400041494C2020286578706563746564290DD3
:101750000A000000202054616D7065726564206984
:101760006D616765203A2050415353202028756EE3
:10177000657870656374656421290D0A00000000B6
:101780000D0A3D3D3D2053454355524520424F4FA4
:10179000544C4F414445522076312E30203D3D3D42
:1017A0000D0A00004D4355202020203A2053544D6F
:1017B00033324335363252452020436F7274657898
:1017C0002D4D333320203438204D487A0D0A000047
:1017D00053656C662020203A20736563746F7273C2
:1017E0002020302D372020203078303830303030F5
:1017F000303020203634204B420D0A00416374699A
:101800007665203A20736563746F72732020382DDB
:1018100032392020307830383031303030302020AC
:10182000313736204B420D0A0000000043686169E1
:101830006E20203A205348412D32353628696D619B
:10184000676529202D3E204543445341207665722B
:10185000696679202D3E206A756D700D0A000000C2
:101860003D3D3D3D3D3D3D3D3D3D3D3D3D3D3D3DA8
:101870003D3D3D3D3D3D3D3D3D3D3D3D3D3D3D3D98
:101880000D0A0D0A000000000D0A2D2D2D205349D0
:10189000474E4154555245205645524946494341C9
:1018A00054494F4E2054455354202D2D2D0D0A20C0
:1018B0002044454D4F5F5349475F522028534841CC
:1018C0002D323536206F66207465737420696D6122
:1018D00067652C207072652D636F6D70757465641B
:1018E000206F66666C696E65293A0D0A202000003B
:1018F0000D0A53595354454D2048414C5445440D0D
:101900000A0000003A3580E4918BE501641C6DA665
:101910009712FD6499B4C0E748B76251AC64E70A16
:101920002C4C107E010000000000000000000000B0
:1019300000000000000000000000000000000000A7
:10194000000000006669726D776172653A76312E2B
:10195000303A68656C6C6F2D7365637572652D77B1
:101960006F726C640000000066C86062C2A322014E
:10197000ACE377B69DF67A8C5DC6DB2C93521DA73F
:101980004C0E16FB96633428010000000000000096
:101990000000000000000000000000000000000047
:1019A00000000000000000006B17D1F2E12C42475C
:1019B000F8BCE6E563A440F277037D812DEB33A00C
:1019C000F4A13945D898C2964FE342E2FE1A7F9BB4
:1019D0008EE7EB4A7C0F9E162BCE33576B315ECED3
:1019E000CBB6406837BF51F55B424F4F545D204145
:1019F000637469766520736C6F7420E28094203084
:101A00007830383031303030300D0A0020204D53DE
:101A1000502020202020203A2030782530386C5863
:101A20000D0A000020204D53502020202020203A75
:101A300020494E56414C494420E28094206E6F204C
:101A40006170706C69636174696F6E20696E207378
:101A50006C6F740D0A5B424F4F545D204E6F2074C3
:101A600072757374656420696D61676520666F7552
:101A70006E640D0A000000002020566572696679C8
:101A8000696E67205348412D323536202B2045435F
:101A9000445341207369676E6174757265202E2E00
:101AA0002E0D0A0020205369676E617475726520DF
:101AB0003A204F4B0D0A5B424F4F545D204A756DE3
:101AC00070696E6720746F206170706C69636174F7
:101AD000696F6E202E2E2E0D0A0000002020536903
:101AE000676E6174757265203A20494E56414C49C3
:101AF0004420E2809420626F6F7420726566757373
:101B000065640D0A5B424F4F545D204E6F20747226
:101B1000757374656420696D61676520666F756EA5
:101B2000640D0A00232D302B2000686C4C00656684
:101B3000674546470030313233343536373839411E
:101B40004243444546003031323334353637383934
:101B50006162636465660000F8B500BFF8B500BF58
:101B6000006CDC0208000020000000000000000003
:101B70000000000000000000000000000000000065
:101B80000000000000000000000000000000000055
:101B90000000000000000000000000000000000045
:101BA0000000000000000000000000000000000035
:101BB0000000000000000000000000000000000025
:081BC00000000000000000001D
:0400000508000D09D9
:00000001FF
