:020000040800F2
:10000000000002208D050008890500088905000808
:10001000890500088905000889050008000000001E
:10002000000000000000000000000000890500083A
:1000300089050008000000008905000889050008FE
:1000400000000000000000000000000000000000B0
:1000500000000000000000000000000000000000A0
:100060000000000000000000000000000000000090
:100070000000000000000000000000000000000080
:100080000000000000000000000000000000000070
:100090000000000000000000000000000000000060
:1000A0000000000000000000000000000000000050
:1000B0000000000000000000000000000000000040
:1000C0000000000000000000000000000000000030
:1000D0000000000000000000000000000000000020
:1000E0000000000000000000000000000000000010
:1000F0000000000000000000000000000000000000
:10010000000000000000000000000000350C0008A6
:10011000650C0008950C0008C50C0008F50C0008DB
:1001200000000000000000000000000000000000CF
:1001300000000000000000000000000000000000BF
:1001400010B41024074B1C6040B1002482721122AD
:100150000160446004811A6010BC70471F2210BC0B
:100160001A6070470C000020202370B42D4C2360CF
:1001700000283FD002680146002A3BD002F13F43ED
:1001800003F57E03B3F5805F39D302F14043A3F555
:100190000433B3F5805F36D2234B2448934232D8E0
:1001A000A2F150052B1A6D062DD1DB090B72204BE5
:1001B000486098422ED01F48D0F8883043F00203A0
:1001C000C0F888300020022350615361536913F056
:1001D0000203FBD14FF4FE462125D6601360136461
:1001E00053649364D3641365D3674B7218462560D8
:1001F00070BC70472F230120236070BC70470E4BEA
:100200000B489342CCD901232E224B721846226010
:1002100070BC70470748D0F8883043F00103C0F83D
:100220008830CFE70C000020501002400010024040
:1002300000000240000C02445000024070B4302420
:10024000114D2C60B0B10468A4B19BB1666926F071
:1002500001066661807A90B9039840F00800E16475
:1002600022653122A364049B2064636400202A6019
:1002700070BC70473F2301202B6070BC704703980F
:1002800040F40020EBE700BF0C00002040220D49A5
:100290000A6098B10268034682B130B44FF4FE445C
:1002A0004FF0020C4125D4605469002044F0010451
:1002B000546183F809C00D6030BC70474F230120A2
:1002C0000B6070470C00002050210C4A116080B177
:1002D0000168034669B14FF0000C10B4512448691D
:1002E00020F00100486183F809C06046146010BC2A
:1002F00070475F2301201360704700BF0C0000208F
:1003000060230C4902460B6080B1036873B1186921
:1003100010F4807002D162230B6070474FF0000C24
:100320006123012082F809C00B6070476F23002011
:100330000B6070470C0000202DE9F04790B00023BF
:100340000122784905A800F06FFC0022764908A830
:10035000FFF7F6FE20250123002403A873490BAA0A
:10036000CDE90B53CDE90D4300F02EFA0DEB05005E
:10037000FFF7FAFE002800F0BC8000256C4C01E07D
:10038000013C04D008A8FFF7BBFF0028F8D0694E55
:10039000694B324603F1080413F8010F12F8011FEC
:1003A000884240F0BC80A342F6D108A8FFF78CFF3A
:1003B000002818BF0025DFF884A1614CDFF8849184
:1003C000DFF88481614F7DB1202103A800F012F98C
:1003D0005F4905A800F0A6FC5E4B00BF1A46013B32
:1003E000002AFAD1002DEFD10122202103A800F02C
:1003F000FBF8494605A800F095FC414605A800F029
:1004000091FC012105A800F0A5FC394605A800F0E3
:1004100089FC002105A800F09DFC4F4905A800F0CB
:1004200081FCDAF8001005A800F0BAFC4B4905A8D9
:1004300000F078FC089B05A8196900F0B1FC484958
:1004400005A800F06FFC089B05A8596900F0A8FCFE
:10045000444905A800F066FC089B05A8196C00F04B
:100460009FFC414905A800F05DFC089B05A8596C5C
:1004700000F096FC3D4905A800F054FC089B05A837
:10048000996C00F08DFC3A4905A8354600F04AFC0D
:1004900015F8011F05A800F05DFCA542F8D135490B
:1004A00005A800F03FFC344B00BF1A46013B002A70
:1004B000FAD1202103A800F097F82F4B00BF1A466D
:1004C000013B002AFAD10122202103A800F08CF878
:1004D000294B00BF1A46013B002AFAD1202103A86C
:1004E00000F082F8254B00BF1A46013B002AFAD1E2
:1004F0007AE74FF400754FF008140823CDE9004562
:100500001F4A204908A8FFF799FE00287FF435AF5D
:1005100008A8FFF7BBFEB0FA80F56D092EE70025AD
:1005200043E700BF00440040D00002400000024208
:10053000400D03000F000020FFFFFF1F0C000020F4
:1005400017000020040E0008100E0008180E000806
:10055000F80D0008DF930400240E00082C0E00089C
:10056000340E00083C0E0008440E00084C0E000833
:10057000540E00080C0E00087F3801007F1A060098
:100580001000002000000020FEE700BF0F48104AC6
:1005900008B5904207D2013A121A22F003020D491F
:1005A000043200F013FC0C480C4A904207D2013A86
:1005B000121A22F003020021043200F014FC084B4E
:1005C000084A1A60FFF7B8FEFEE700BF00000020EF
:1005D0000C000020780E00080C0000202C000020E9
:1005E00008000020006CDC02036802B9090499616C
:1005F000704700BF03685A6951405961704700BF96
:10060000254A036882B0934224D0244A934213D0EF
:10061000234A93422ED0234A934233D0224A934214
:1006200020D0224A93420ED1214AD2F88C3043F096
:100630008003C2F88C3006E01D4AD2F88C3043F0BB
:100640000203C2F88C301A4BD3F88C300193019B13
:1006500002B07047164AD2F88C3043F00103C2F85A
:100660008C30F0E7124AD2F88C3043F01003C2F815
:100670008C30E8E70E4AD2F88C3043F00403C2F81D
:100680008C30E0E702F10072D2F88C3043F00803BE
:10069000C2F88C30D7E700BF0000024200040242DB
:1006A00000080242000C024200100242001C0242FA
:1006B000000C02442DE9F04F83B00090FFF7A0FF3B
:1006C0004468002301274FF0030B266802E0013342
:1006D000102B30D007FA03F030EA0602F7D1616838
:1006E000009A21F0100C5D00BCF1020F12680BFAA9
:1006F00005FE0CF1FF3C21D0D2F800906FEA0E0805
:1007000029EA0E0901F0030E0EFA05FE4EEA090E63
:10071000BCF1010FC2F800E03FD9A168D06801F038
:10072000030100EA080801FA05F5013345EA080566
:10073000102BD560CED103B0BDE8F08FD4F810C037
:100740005D000CF00F0E03F0070C4FEA8C0C0EFA54
:100750000CFECDF804E04FF00F0E0BFA05FA6FEA2D
:100760000A084FEAD30902EB89090EFA0CFCD9F802
:1007700020E02EEA0C0CDDF804E04EEA0C0CC9F87F
:1007800020C0D2F800E001F0030C2EEA0A0E0CFAA9
:1007900005FC4CEA0E0CC2F800C0D2F808C0D4F830
:1007A0000CE00CEA080C0EFA05FE4EEA0C0CC2F83E
:1007B00008C0D2F804C0C1F3001199402CEA00002F
:1007C00001435160A9E700BFC0E90012FFF772BF03
:1007D00000214368AA4A30B49342196037D0A94A2D
:1007E00093420DD0A84A934200F01781A74A934242
:1007F00000F06C81A64A934200F0B28002784BE090
:10080000A44AD2F89C1041F40031C2F89C10D2F8EE
:100810008C1041F00101C2F88C100278511E0129A0
:1008200040F28A80002A40F0BD819B490C6824F088
:10083000C0040C600C6844F080040C600C6A24F462
:1008400070440C620C6A44F4E0440C6224E0914A67
:10085000D2F8A41041F48041C2F8A410D2F88C1050
:1008600041F00101C2F88C100278511E012942D9D1
:10087000002A40F0978188490C6824F440140C60E9
:100880000C6844F400140C604C6A24F470644C62EC
:100890004C6A44F4E0644C6241F2883440F2A111A5
:1008A0007E4D1D6290F801C0BCF1000F18BF2146BB
:1008B0000024D9605C609C60002A79D0012A14BFB2
:1008C0000D2209226E491A608B4276D06D4A9342FE
:1008D00000F0978002F58062934200F09A8002F562
:1008E0008062934200F0C78002F58062934200F07C
:1008F000BE8030BC70476849022A0C6824F440244A
:100900000C600C6844F400240C604C6A24F0F00481
:100910004C624C6A44F070044C62ACD05F4A1A627C
:100920004278002A40F0FA800122002140F2A1140E
:10093000DC6059609960C1E75749022A0C6824F0CD
:1009400030040C600C6844F020040C600C6A24F441
:1009500070640C620C6A44F4E0640C62DED164E7FB
:100960004C49D1F89C2042F48012C1F89C200278B6
:10097000541E012C40F2EF80002A40F03581454C96
:10098000D4F88C1041F00801C4F88C1044490C686C
:1009900024F030040C600C6844F020040C600C6AF5
:1009A00024F470640C620C6A44F400640C6273E713
:1009B000052233491A608B4288D14FF40021394C0B
:1009C0004FF0000C4FF0E02384F800C02C4AC3F82D
:1009D00004114368934210D02A4A934215D02A4A00
:1009E000934240D0294A934200F09580284A93428E
:1009F0007FF47FAF2C4B18607BE72C4B30BC18602A
:100A000070474FF480112A4CDAE72A4B30BC18604B
:100A100070474FF40011284CD2E71E4AD2F89C10C0
:100A200041F48021C2F89C10D2F88C1041F00201F0
:100A3000C2F88C100278511E012977D9002A40F0A3
:100A4000D3801E490C6824F440040C600C6844F404
:100A500000040C604C6A24F470444C624C6A44F408
:100A6000E0444C6218E7164B30BC186070474FF4F6
:100A70000001144CA4E74FF48001134CA0E700BF21
:100A8000003801400044004000480040004C004055
:100A900000500040000C024400000242FF3B1200E4
:100AA000000C024233E400E01C0000202000002083
:100AB00034E400E02400002035E400E000040242B9
:100AC0002800002037E400E036E400E0504AD2F885
:100AD0009C1041F40021C2F89C10D2F88C1041F017
:100AE0000101C2F88C100278511E012968D9002A30
:100AF0007AD148490C6824F00C040C600C6844F06E
:100B000008040C600C6A24F0F0040C620C6A44F0D7
:100B100080040C62C0E6404B1860EAE6002241F215
:100B20008831D9605A609A600922CBE63B49022A93
:100B30000C6824F440140C600C6844F400140C603D
:100B40004C6A24F470644C624C6A44F4E0644C6275
:100B50007FF4E4AE75E7D1F88C40022A44F0040437
:100B6000C1F88C402E490C6824F040740C600C686D
:100B700044F000740C604C6A24F470244C624C6A9B
:100B800044F400244C623FF4FAAE264A1A624278DA
:100B9000002A36D00122002141F28834DC605960FD
:100BA00099608BE61F491962417800293FF4BDAE78
:100BB000002141F288340D22DC605960996081E6A1
:100BC0001449022A0C6824F003040C600C6844F0F9
:100BD00002040C600C6A24F00F040C620C6A44F0EE
:100BE00008040C62D1D184E70E49196241780029CA
:100BF000D1D140F2A1140D22DC60596099601A60D5
:100C000064E640F2A111D9605A609A608CE700BF97
:100C1000000C0244000002421800002000040242BE
:100C200000080242FF3B1200027043704160FFF770
:100C3000CFBD00BF0A4B1B685BB15968CA6912F08F
:100C40000F0007D1920604D59B68486A0BB1C0B269
:100C50001847704708629006FBD54B6A704700BF83
:100C6000200000200A4B1B685BB15968CA6912F06A
:100C70000F0007D1920604D59B68486A0BB1C0B239
:100C80001847704708629006FBD54B6A704700BF53
:100C9000240000200A4B1B685BB15968CA6912F036
:100CA0000F0007D1920604D59B68486A0BB1C0B209
:100CB0001847704708629006FBD54B6A704700BF23
:100CC000280000200A4B1B685BB15968CA6912F002
:100CD0000F0007D1920604D59B68486A0BB1C0B2D9
:100CE0001847704708629006FBD54B6A704700BFF3
:100CF000180000200A4B1B685BB15968CA6912F0E2
:100D00000F0007D1920604D59B68486A0BB1C0B2A8
:100D10001847704708629006FBD54B6A704700BFC2
:100D20001C0000208C46097899B110B40D2442684B
:100D30000A2909D0D3691B06FCD591621CF8011F52
:100D40000029F5D110BC7047D3691806FCD5946210
:100D5000F0E7704770B5114D86B006AB0DF1040E8B
:100D600003EB11168C4644680FCDAEE80F002B68DC
:100D700016F8141C8EF80030E3691A06FCD50CF046
:100D80000F0C0CF118030DEB030C1CF8142CA162D2
:100D9000E3691B06FCD5A26206B070BD5C0E0008BC
:100DA00038B50C460546090EFFF7D4FF2846C4F3B4
:100DB0000741FFF7CFFF2846C4F30721FFF7CAFF1B
:100DC0002846E1B2BDE83840FFF7C4BF0A44431EDD
:100DD000914200D1704710B511F8014B914203F8D0
:100DE000014FF9D110BD02440346934200D1704730
:100DF00003F8011BF9E70000444D412050415353D3
:100E00000A000000444D41204641494C0A000000C0
:100E1000616464723D000000207472616E736665E7
:100E2000723D0000206462673D0000002073723D47
:100E3000000000002063723D000000002074723149
:100E40003D000000207472323D00000020627231CB
:100E50003D000000206473743D00000030313233E7
:100E600034353637383941424344454600000000A6
:080E7000F8B500BFF8B500BFA2
:0C0E78001021324354657687006CDC02C8
:040000050800058D5D
:00000001FF
