:020000040801F1
:1000000000000220190E0108150E0108150E010846
:10001000150E0108150E0108150E0108000000005C
:10002000000000000000000000000000150E0108A4
:10003000150E010800000000150E0108150E01083C
:1000400000000000000000000000000000000000B0
:1000500000000000590B010800000000F103010836
:1000600001040108110401082104010831040108F8
:1000700041040108510401086104010871040108E8
:100080008104010895040108A9040108BD040108C0
:10009000D1040108E5040108F90401080D0501086F
:1000A0002105010835050108490501085D0501081C
:1000B0007105010885050108990501080000000087
:1000C0000000000000000000000000000000000030
:1000D0000000000000000000000000000000000020
:1000E0000000000000000000000000000000000010
:1000F0000000000000000000000000000000000000
:10010000000000000000000000000000AD05010834
:10011000C1050108D5050108E9050108FD0501082B
:1001200000000000000000000000000000000000CF
:1001300000000000000000000000000000000000BF
:1001400000000000000000000000000000000000AF
:10015000000000000000000000000000000000009F
:10016000000000000000000000000000000000008F
:10017000000000000000000000000000000000007F
:10018000000000000000000000000000000000006F
:10019000000000000000000000000000000000005F
:1001A000000000000000000000000000000000004F
:1001B000000000000000000000000000000000003F
:1001C000000000000000000000000000000000002F
:1001D000000000000000000000000000000000001F
:1001E000000000000000000000000000000000000F
:1001F00000000000000000000000000000000000FF
:1002000000000000000000000000000000000000EE
:1002100000000000000000000000000000000000DE
:1002200000000000000000000000000000000000CE
:1002300000000000000000000000000000000000BE
:100240000021064A10B4D2F88830054C43F480539C
:10025000C2F888300460017110BC7047000C024481
:10026000003002400146064A03681A605A6AD20703
:10027000FCD5586A10F00200FBD198608860704786
:1002800004000600002956D0002A54D02DE9F0437E
:100290009508064602F0030043D08C464FF0000E4E
:1002A000346815E09CF801309CF800909CF80380BD
:1002B0001B049CF8027043EA096343EA08030EF149
:1002C000010E43EA0723754563600CF1040C09D065
:1002D0001EF00F0FE6D1636ADF07E3D4636ADF071E
:1002E000F9D5DFE7B8B12D071ED00025AC46C30015
:1002F000A36022F003031944C5EB457311F8017B99
:10030000DB001833013507FA03F3A8424CEA030C6B
:10031000F2D8C4F804C0B36800201A44B260BDE843
:10032000F0830028F7D03468636ADB07DDD4636AA2
:10033000DB07F9D5D9E70120704700BF51B310B5ED
:100340008268036802F00302D0005A6A9407FCD462
:1003500040F4807098605A6A9007FCD55A6A120778
:10036000FCD4BFF34F8F0B460B4C01F1200E641AE7
:10037000E25804334FEA126C100C110A734503F86B
:1003800004CC03F8030C03F8021C03F8012CEFD192
:10039000002010BD0120704710070C427F2823D891
:1003A00011B310B4114C002844F8301004EBC00411
:1003B000626016DB0124410900F1604C1A018900DA
:1003C00000F01F0301F160410CF5644CD2B28CF8CF
:1003D000002004FA03F301F56141002010BC0B601A
:1003E0007047002010BC70470120704704000020B7
:1003F000024A936B0BB1D06B184770470400002082
:10040000024A136C0BB1506C18477047040000206F
:10041000024A936C0BB1D06C18477047040000205F
:10042000024A136D0BB1506D18477047040000204D
:10043000024A936D0BB1D06D18477047040000203D
:10044000024A136E0BB1506E18477047040000202B
:10045000024A936E0BB1D06E18477047040000201B
:10046000024A136F0BB1506F184770470400002009
:10047000024A936F0BB1D06F1847704704000020F9
:10048000034AD2F8803013B1D2F88400184770477D
:1004900004000020034AD2F8883013B1D2F88C004F
:1004A0001847704704000020034AD2F8903013B177
:1004B000D2F894001847704704000020034AD2F88D
:1004C000983013B1D2F89C00184770470400002000
:1004D000034AD2F8A03013B1D2F8A40018477047ED
:1004E00004000020034AD2F8A83013B1D2F8AC00BF
:1004F0001847704704000020034AD2F8B03013B107
:10050000D2F8B4001847704704000020034AD2F81C
:10051000B83013B1D2F8BC0018477047040000206F
:10052000034AD2F8C03013B1D2F8C400184770475C
:1005300004000020034AD2F8C83013B1D2F8CC002E
:100540001847704704000020034AD2F8D03013B196
:10055000D2F8D4001847704704000020034AD2F8AC
:10056000D83013B1D2F8DC001847704704000020DF
:10057000034AD2F8E03013B1D2F8E40018477047CC
:1005800004000020034AD2F8E83013B1D2F8EC009E
:100590001847704704000020034AD2F8F03013B126
:1005A000D2F8F4001847704704000020034AD2F83C
:1005B000983113B1D2F89C0118477047040000200D
:1005C000034AD2F8A03113B1D2F8A40118477047FA
:1005D00004000020034AD2F8A83113B1D2F8AC01CC
:1005E0001847704704000020034AD2F8B03113B115
:1005F000D2F8B4011847704704000020034AD2F82B
:10060000B83113B1D2F8BC0118477047040000207C
:100610004268D36913F00F0106D19B0607D58368A2
:10062000506A23B1C0B218471162990600D47047CE
:10063000536A704730B400244368AD4902468B4288
:100640001C6037D0AB498B420DD0AB498B4200F0D8
:10065000F780AA498B4200F02581A9498B4200F01E
:10066000B08001784BE0A749D1F89C0040F40030FD
:10067000C1F89C00D1F88C0040F00100C1F88C005A
:100680001178481E012840F28880002940F08A81B4
:100690009D48046824F0C0040460046844F08004A9
:1006A0000460046A24F470440462046A44F4E0447C
:1006B000046224E09349D1F8A40040F48040C1F8DA
:1006C000A400D1F88C0040F00100C1F88C00117832
:1006D000481E012840D9002940F064818A480468F6
:1006E00024F440140460046844F400140460446A70
:1006F00024F470644462446A44F4E064446241F265
:10070000883440F2A110814D1D6292F801C0BCF105
:10071000000F18BF20460024D8605C609C60002950
:1007200077D0012914BF0D21092171481960834236
:1007300074D070498B4277D001F580618B4279D0BB
:1007400001F580618B4200F0A78001F580618B424A
:1007500000F09C8030BC70476B480229046824F488
:1007600040240460046844F400240460446A24F0D3
:10077000F0044462446A44F070044462AED06349B9
:1007800019625178002940F0C9800121002040F20F
:10079000A114DC6058609860C3E75B4802290468D4
:1007A00024F030040460046844F020040460046A07
:1007B00024F470640462046A44F4E0640462DED1E8
:1007C00066E75048D0F89C1041F48011C0F89C10A6
:1007D00011784C1E012C40F2BE80002940F00481AB
:1007E000484CD4F88C0040F00800C4F88C0048480D
:1007F000046824F030040460046844F020040460B9
:10080000046A24F470640462046A44F400640462B8
:1008100075E705213648196083428AD130BC332000
:1008200000233C49FFF7BABD342030BC00233949CE
:10083000FFF7B4BD352030BC00233649FFF7AEBD0D
:100840003049D1F89C0040F48020C1F89C00D1F8D8
:100850008C0040F00200C1F88C001178481E01287D
:1008600064D9002940F0C0802B48046824F4400477
:100870000460046844F400040460446A24F470448E
:100880004462446A44F4E044446238E7372030BCB0
:1008900000232049FFF782BD362030BC00231D49CC
:1008A000FFF77CBD1749D1F89C0040F40020C1F847
:1008B0009C00D1F88C0040F00100C1F88C00117848
:1008C000481E01287CD9002940F08E800E4804681B
:1008D00024F00C040460046844F008040460046A12
:1008E00024F0F0040462046A44F08004046206E721
:1008F000003801400044004000480040004C0040E7
:1009000000500040000C024400000242FF3B120075
:10091000000C02421106010800040242002141F2CB
:100920008830D860596099600921FEE6384802296C
:10093000046824F440140460046844F4001404605F
:10094000446A24F470644462446A44F4E064446297
:100950007FF415AF88E7D0F88C40022944F00404F6
:10096000C0F88C402B48046824F04074046004688C
:1009700044F000740460446A24F470244462446ABD
:1009800044F4002444623FF42BAF234919625178A8
:10099000002936D00121002041F28834DC60586003
:1009A0009860BEE61C481862507800283FF4EEAE0E
:1009B000002041F288340D21DC6058609860B4E674
:1009C00016480229046824F003040460046844F013
:1009D00002040460046A24F00F040462046A44F010
:1009E00008040462D1D171E70B48186250780028DE
:1009F000D1D140F2A1140D21DC60586098601960DB
:100A000097E640F2A110D860596099608CE700BF6A
:100A10000004024200080242FF3B120000000242B2
:100A2000027043704160FFF705BE00BF8C46097835
:100A300099B110B40D2442680A2909D0D3691B0664
:100A4000FCD591621CF8011F0029F5D110BC70473C
:100A5000D3691806FCD59462F0E7704730B5156885
:100A6000D2F804E0D2F808C0D4680560C0F804E009
:100A7000C0F808C0C460D2F814E0D2F818C0D46935
:100A80001569C0F814E00561C0F818C0C4611C689D
:100A9000D3F804E0D3F808C0DA680462C0F824E0B0
:100AA000C0F828C0C2621C69D3F814E0D3F818C09B
:100AB000DA690463C0F834E0C0F838C0C263016486
:100AC00030BD00BF2DE9F0410546006C1E46A0B0C8
:100AD000A0B30C461746FFF7C5FB21466C463A46C5
:100AE000286CFFF7CFFB2146286CFFF727FC0FCCC3
:100AF0000DF1200EF0460DF1400C6746AEE80F00F8
:100B000094E80F008EE80F00B8E80F00ACE80F0083
:100B10009EE80F008CE80F0018AD0FCF0FC59CE8C2
:100B20000F0085E80F002022314618A800F0A2F936
:100B3000B0FA80F0400920B0BDE8F0816C4625464F
:100B4000186859689A68DB680FC530697169B269BD
:100B5000F3690FC5CBE700BF4FF4E0220A4B196AD7
:100B60001A639A6A22F480329A62CB0302D5012278
:100B7000064B1A7011F4C02F04D001230449034A14
:100B80000B701370704700BF002002400404002067
:100B90000504002000234FF0E022202130B4044D52
:100BA000044CC0E90053637130BCC2F800117047B7
:100BB0000020024000E400E00368986A10F00100A1
:100BC00006D00449044A59605A60986A00F001004E
:100BD000704700BF23016745AB89EFCD03461A6814
:100BE0000020936A43F00103936270470368186A18
:100BF000C007FCD4986A40F0020098620A609A6AC2
:100C000042F010029A62186A10F00300FBD19A6A4F
:100C100022F002029A62704730B40268136A13F03D
:100C20000103FBD14FF4E02501F17841946A4FEACA
:100C3000513C1249214041EA8C1141F0040191627A
:100C40000F4C10490B7023700F4B1D63936A43F4D4
:100C500080339362936A43F0200393620B78002BF6
:100C6000FCD0916A094B0B40936222782378426052
:100C7000181E18BF012030BC704700BF33F0FF7F43
:100C80000504002004040020002002403BF0FF7F08
:100C900010B592B062B6002301222A492A48FFF714
:100CA000BFFE2A4B2A4A00212A48FFF7D7FE2A48CE
:100CB000FFF7C6FA2948FFF76DFF29492248FFF7D9
:100CC000B5FE0AAC2022012102A800F0F0F8202293
:100CD0000121204600F0EBF822491B48FFF7A6FE51
:100CE00018222149214802AB009400F04FF8C8B106
:100CF0001F491548FFF79AFE1E491348FFF796FE55
:100D000018221949194800F045F8431C0FD0023049
:100D100012D019490C48FFF789FE18490A48FFF715
:100D200085FEFEE716490848FFF780FEFEE71549F5
:100D30000548FFF77BFEFEE713490348FFF776FE01
:100D4000E7E700BF00440040680400209412010857
:100D500074120108140400205804002060040020CC
:100D6000C00E0108E40E01085C120108080400200E
:100D70001012010818120108D41001085C110108B2
:100D8000FC0E0108100F0108340F01080C30FFF7AA
:100D900099BE00BF2DE9F84300F1580528460F46DB
:100DA0001646FFF709FF58BB174CDFF86080214655
:100DB000284604F50054FFF72FFF4445F7D1032ED2
:100DC00017D9114CDFF84880DFF8409001E04C451E
:100DD0000FD03B1903F1774303F57C0321461A68D2
:100DE0002846FFF703FF04EB08039E4204F10404C6
:100DF000EDD22846FFF7F2FE6FF00100BDE8F88360
:100E00004FF0FF30BDE8F88300000408000006083A
:100E10000800FCF7FEE700BF0F48104A08B59042F3
:100E200007D2013A121A22F003020D49043200F0EF
:100E300031F80C480C4A904207D2013A121A22F0BB
:100E400003020021043200F032F8084B084A1A600D
:100E5000FFF71EFFFEE700BF000000200400002097
:100E6000BC120108040000207404002000000020CF
:100E7000006CDC020139024410B5904201D100201F
:100E800005E0037811F8014FA34201D0181B10BDF3
:100E90000130F2E70A44431E914200D1704710B579
:100EA00011F8014B914203F8014FF9D110BD0244F2
:100EB0000346934200D1704703F8011BF9E7000095
:100EC0000D0A3D3D3D20534543555245204649526C
:100ED0004D5741524520555044415445203D3D3DDC
:100EE0000D0A0A005B315D2045434453412076657D
:100EF00072696679202E2E2E00000000204641499E
:100F00004C20E280942041424F52540D0A000000D0
:100F100020202020466C61736820756E6C6F636BB7
:100F2000204552524F5220E280942041424F525469
:100F30000D0A0000202020204669726D77617265DD
:100F4000207772697474656E20746F2073656374A2
:100F50006F72732033322D343720284E6F6E2D532D
:100F60006563757265292E20444F4E450D0A202079
:100F700020204E4F54453A20536563746F7273209E
:100F800034382D3633206172652054727573745A6B
:100F90006F6E652D5365637572652028464C41530D
:100FA000485F5345434242520D0A20202020626C84
:100FB0006F636B7320362D37292E204E6F6E2D53A5
:100FC000656375726520636F64652063616E6E6F23
:100FD00074206572617365206F7220777269746521
:100FE000207468656D2E0D0A202020204352432076
:100FF00074616720617420736563746F7220363288
:101000002028307830383037433030302920697329
:1010100020616C736F205365637572652E0D0A2015
:10102000202020496E2070726F64756374696F6E42
:101030003A2061204E6F6E2D5365637572652043B3
:10104000616C6C61626C6520284E534329205365A6
:101050006375726520676174657761790D0A202078
:10106000202066756E6374696F6E20696E207468E7
:101070006520626F6F746C6F616465722061636379
:10108000657074732074686520696D616765202BD5
:101090002043524320616E640D0A20202020636F9C
:1010A0006D706C65746573207468652066616C6C26
:1010B0006261636B2077726974652066726F6D2060
:1010C00053656375726520636F6E746578742E0D59
:1010D0000A0000005B335D2041637469766520730C
:1010E0006C6F74204E4F5420696E76616C69646138
:1010F000746564202866616C6C6261636B20746146
:1011000067206E6F742079657420777269747465D6
:101110006E292E0D0A20202020496E2070726F64E7
:10112000756374696F6E3A205365637572652067E5
:1011300061746577617920636F6D706C6574657338
:1011400020746167202B204E5320696E76616C6994
:1011500064617465732E0D0A000000000D0A3D3DA8
:101160003D20534543555245204649524D57415223
:1011700045205550444154452044454D4F20434F50
:101180004D504C455445203D3D3D0D0A202020202A
:1011900050726F746F636F6C2064656D6F6E7374E3
:1011A00072617465643A2045434453412076657208
:1011B000696679202B20666C617368207772697488
:1011C0006520284E5320706F7274696F6E292E0D42
:1011D0000A2020202054727573745A6F6E65206245
:1011E0006F756E6461727920726573706563746582
:1011F0006420E2809420626F6172642072656D6188
:10120000696E7320626F6F7461626C652E0D0A00E7
:1012100020504153530D0A005B325D2057726974B0
:10122000696E672066616C6C6261636B20736C6FC2
:10123000742028736563746F72732033322D3437D2
:101240002C20313238204B4220616363657373690F
:10125000626C65292E2E2E0D0A000000000002206F
:1012600009000408FEE700005346572D5550443A44
:1012700076322E306B17D1F2E12C4247F8BCE6E50E
:1012800063A440F277037D812DEB33A0F4A13945AF
:10129000D898C2964FE342E2FE1A7F9B8EE7EB4A54
:1012A0007C0F9E162BCE33576B315ECECBB640688B
:0C12B00037BF51F5F8B500BFF8B500BF1E
:0412BC00006CDC02E4
:0400000508010E19C7
:00000001FF
