:020000040800F2
:100000000000022015040008090400080D0400087F
:100010000904000809040008090400081104000884
:1000200000000000000000000000000009040008BB
:100030000904000800000000090400080904000881
:1000400000000000000000000000000000000000B0
:1000500000000000000000000000000000000000A0
:100060000000000000000000000000000000000090
:100070000000000000000000000000000000000080
:100080000000000000000000000000000000000070
:100090000000000000000000000000000000000060
:1000A0000000000000000000000000000000000050
:1000B0000000000000000000000000000000000040
:1000C0000000000000000000000000000000000030
:1000D0000000000000000000000000000000000020
:1000E0000000000000000000000000000000000010
:1000F0000000000000000000000000000000000000
:1001000000000000000000000000000000000000EF
:1001100000000000000000000000000000000000DF
:1001200000000000000000000000000000000000CF
:1001300000000000000000000000000000000000BF
:1001400000000000000000000000000000000000AF
:10015000000000000000000000000000000000009F
:10016000000000000000000000000000000000008F
:10017000000000000000000000000000000000007F
:1001800003460068026842F00402026002681979BE
:1001900022F4C42222F0380229B101290CBF42F412
:1001A000802242F4C02200210260202203F10C00D0
:1001B0005971996000F0BBBB30B400240A4A447105
:1001C0000171D2F88810094D41F001010560846089
:1001D000C2F88810D2F88C3030BC43F40033C2F837
:1001E0008C30FFF7CDBF00BF000C024400040C426E
:1001F000002900F08280002A7FD02DE9F84F032AE1
:10020000044600AF02F0030559D922F0030808F1B3
:10021000070323F00703E946ADEB030D6E468C465A
:10022000A8F104003044A6F1040E9CF801309CF8BB
:1002300000A01B0443EA0A639CF803A00CF1040C21
:1002400043EA0A031CF802AC43EA0A234EF8043FCF
:100250007045EAD14FF0020ED4F800C02848DCF80F
:10026000003043F00803CCF80030C0F864E0436E7F
:1002700013F00203FBD140F2FF1E4FF03F0AC0F81B
:100280005CE04FF0010EDFF87CB0C0F890B0C0F831
:1002900094A0C0F89880C0F89C601B4EC0F8A06085
:1002A000C0F8CC30C0F864E01548036EDE05FCD51C
:1002B000DCF8003023F00803CCF80030CD46ADB1B7
:1002C00025686B6ADB07FCD518264FF0000C22F07E
:1002D00003030B44114413F8010BB04099424CEA5C
:1002E000000CA6F10806F6D1C5F804C00020A368EA
:1002F0001A44A260BD46BDE8F88F0120704700BFD8
:10030000000002400A00020004040C4291B383681A
:10031000026870B503F0030306461068DB0020F0A6
:10032000080043F4807310609360536A9B07FCD508
:100330003379D3B905240B460F4D01EB84046D1AB4
:10034000EA5804334FEA126E4FEA124C110AA342E4
:1003500003F804EC03F803CC03F8021C03F8012CA7
:10036000EED100237371184670BD012B0CBF07241A
:100370000824E0E70120704710070C42F0B5002385
:1003800095B0012219491A4800F09EFA19491848F7
:1003900000F0A8FA022109A8FFF70EFF0322164970
:1003A00009A8FFF725FF01A909A8FFF7AFFF134927
:1003B0000F4800F097FA124E0D4D0DF103040DF1A8
:1003C000230714F8013F28461B09F15C00F082FA6C
:1003D0002378284603F00F03F15C00F07BFABC425F
:1003E000EFD10849024800F07DFAFEE700440040E2
:1003F0000400002040090008580900085C090008B2
:10040000C809000870090008FEE700BFFEE700BF4A
:10041000FEE700BF0F48104A08B5904207D2013AE4
:10042000121A22F003020D49043200F073FA0C484C
:100430000C4A904207D2013A121A22F0030200211C
:10044000043200F074FA084B084A1A60FFF796FF6E
:10045000FEE700BF0000002004000020E4090008BF
:10046000040000202400002000000020006CDC02BA
:1004700000214368AA4A30B49342196037D0A94A90
:1004800093420DD0A84A934200F01781A74A9342A5
:1004900000F06C81A64A934200F0B28002784BE0F3
:1004A000A44AD2F89C1041F40031C2F89C10D2F852
:1004B0008C1041F00101C2F88C100278511E012904
:1004C00040F28A80002A40F0BD819B490C6824F0EC
:1004D000C0040C600C6844F080040C600C6A24F4C6
:1004E00070440C620C6A44F4E0440C6224E0914ACB
:1004F000D2F8A41041F48041C2F8A410D2F88C10B4
:1005000041F00101C2F88C100278511E012942D934
:10051000002A40F0978188490C6824F440140C604C
:100520000C6844F400140C604C6A24F470644C624F
:100530004C6A44F4E0644C6241F2883440F2A11108
:100540007E4D1D6290F801C0BCF1000F18BF21461E
:100550000024D9605C609C60002A79D0012A14BF15
:100560000D2209226E491A608B4276D06D4A934261
:1005700000F0978002F58062934200F09A8002F5C5
:100580008062934200F0C78002F58062934200F0DF
:10059000BE8030BC70476849022A0C6824F44024AD
:1005A0000C600C6844F400240C604C6A24F0F004E5
:1005B0004C624C6A44F070044C62ACD05F4A1A62E0
:1005C0004278002A40F0FA800122002140F2A11472
:1005D000DC6059609960C1E75749022A0C6824F031
:1005E00030040C600C6844F020040C600C6A24F4A5
:1005F00070640C620C6A44F4E0640C62DED164E75F
:100600004C49D1F89C2042F48012C1F89C20027819
:10061000541E012C40F2EF80002A40F03581454CF9
:10062000D4F88C1041F00801C4F88C1044490C68CF
:1006300024F030040C600C6844F020040C600C6A58
:1006400024F470640C620C6A44F400640C6273E776
:10065000052233491A608B4288D14FF40021394C6E
:100660004FF0000C4FF0E02384F800C02C4AC3F890
:1006700004114368934210D02A4A934215D02A4A63
:10068000934240D0294A934200F09580284A9342F1
:100690007FF47FAF2C4B18607BE72C4B30BC18608D
:1006A00070474FF480112A4CDAE72A4B30BC1860AF
:1006B00070474FF40011284CD2E71E4AD2F89C1024
:1006C00041F48021C2F89C10D2F88C1041F0020154
:1006D000C2F88C100278511E012977D9002A40F007
:1006E000D3801E490C6824F440040C600C6844F468
:1006F00000040C604C6A24F470444C624C6A44F46C
:10070000E0444C6218E7164B30BC186070474FF459
:100710000001144CA4E74FF48001134CA0E700BF84
:10072000003801400044004000480040004C0040B8
:1007300000500040000C024400000242FF3B120047
:10074000000C024233E400E01400002018000020F6
:1007500034E400E01C00002035E400E00004024224
:100760002000002037E400E036E400E0504AD2F8F0
:100770009C1041F40021C2F89C10D2F88C1041F07A
:100780000101C2F88C100278511E012968D9002A93
:100790007AD148490C6824F00C040C600C6844F0D1
:1007A00008040C600C6A24F0F0040C620C6A44F03B
:1007B00080040C62C0E6404B1860EAE6002241F279
:1007C0008831D9605A609A600922CBE63B49022AF7
:1007D0000C6824F440140C600C6844F400140C60A1
:1007E0004C6A24F470644C624C6A44F4E0644C62D9
:1007F0007FF4E4AE75E7D1F88C40022A44F004049B
:10080000C1F88C402E490C6824F040740C600C68D0
:1008100044F000740C604C6A24F470244C624C6AFE
:1008200044F400244C623FF4FAAE264A1A6242783D
:10083000002A36D00122002141F28834DC60596060
:1008400099608BE61F491962417800293FF4BDAEDB
:10085000002141F288340D22DC605960996081E604
:100860001449022A0C6824F003040C600C6844F05C
:1008700002040C600C6A24F00F040C620C6A44F051
:1008800008040C62D1D184E70E491962417800292D
:10089000D1D140F2A1140D22DC60596099601A6038
:1008A00064E640F2A111D9605A609A608CE700BFFB
:1008B000000C02440000024210000020000402422A
:1008C00000080242FF3B1200027043704160FFF7D4
:1008D000CFBD00BF4268D3691B06FCD5C9B2916287
:1008E000704700BF8C46097899B110B40D24426856
:1008F0000A2909D0D3691B06FCD591621CF8011F97
:100900000029F5D110BC7047D3691806FCD5946254
:10091000F0E770470A44431E914200D1704710B57A
:1009200011F8014B914203F8014FF9D110BD024477
:100930000346934200D1704703F8011BF9E700001A
:100940000D0A3D3D3D204861736820546573747302
:10095000203D3D3D0D0A0000616263005348412D7A
:1009600032353628226162632229203D20000000B2
:100970000D0A45787065637465643A202020202054
:100980002020206261373831366266386630316344
:1009900066656134313431343064653564616532A3
:1009A00065633733623333386330616138343363BE
:1009B00038613363623334383065346630643963A8
:1009C0003837320D0A0000003031323334353637D3
:1009D000383961626364656600000000F8B500BFE5
:0409E000F8B500BFA7
:0409E400006CDC02C5
:0400000508000415D6
:00000001FF
