:020000040800F2
:1000000000000220590500085505000855050008A4
:1000100055050008550500085505000800000000BA
:10002000000000000000000000000000550500086E
:10003000550500080000000055050008550500089A
:1000400000000000000000000000000000000000B0
:100050000000000000000000000000000906000889
:100060001906000829060008390600084906000894
:100070005906000869060008790600088906000884
:1000800099060008AD060008C1060008D50600085C
:10009000E9060008FD06000811070008000000003E
:1000A0000000000000000000000000000000000050
:1000B0000000000000000000000000000000000040
:1000C0000000000000000000000000000000000030
:1000D0000000000000000000000000000000000020
:1000E0000000000000000000000000000000000010
:1000F0000000000000000000000000000000000000
:1001000000000000000000000000000000000000EF
:1001100000000000000000000000000000000000DF
:1001200000000000000000000000000000000000CF
:1001300000000000000000000000000000000000BF
:1001400000000000000000000000000000000000AF
:10015000000000002507000800000000000000006B
:10016000000000000000000000000000000000008F
:10017000000000000000000000000000000000007F
:10018000000000000000000000000000000000006F
:10019000000000000000000000000000000000005F
:1001A000000000000000000000000000000000004F
:1001B000000000000000000000000000000000003F
:1001C000000000000000000000000000000000002F
:1001D000000000000000000000000000000000001F
:1001E000000000000000000000000000000000000F
:1001F00000000000000000000000000000000000FF
:1002000000000000000000000000000000000000EE
:1002100000000000000000000000000000000000DE
:1002200000000000000000000000000000000000CE
:1002300000000000000000000000000000000000BE
:1002400051B310B58468036804F00300C400586A11
:100250008007FCD444F480749C60586A8407FCD501
:10026000586A0007FCD4BFF34F8F0B460B4C01EBD1
:10027000820E641AE25804334FEA126C100C110A11
:10028000734503F804CC03F8030C03F8021C03F8CD
:10029000012CEFD1002010BD0120704710070C4247
:1002A00000210B4B10B4D3F88C200A4C42F40032DE
:1002B000C3F88C205A6E42F400325A665A6E22F409
:1002C00000325A660460017110BC8160704700BF43
:1002D000000C024400040C420422014603681A6028
:1002E0005A6AD207FCD5586A10F00200FBD1986018
:1002F000886070470522FFF7A3BF00BF4FF00412CC
:10030000014603681A605A6AD207FCD5586A10F091
:100310000200FBD198608860704700BF0722FFF79A
:100320008FBF00BF0146064A03681A605A6AD207A7
:10033000FCD5586A10F00200FBD1986088607047C5
:1003400004000600002943D02DE9F0411446002A9C
:100350003BD00546900802F0030619D08C462A6867
:1003600001EB8000536ADF07FCD59CF801309CF854
:1003700000809CF803701B049CF802E043EA0863C9
:100380003B430CF1040C43EA0E2360455360E9D172
:10039000AEB12A68536ADB07FCD5F60096600027E9
:1003A000182624F003000844214410F8013BB34010
:1003B000814247EA0307A6F10806F6D15760AB6809
:1003C00000202344AB60BDE8F0810120BDE8F0814E
:1003D0000120704751B310B58268036802F0030230
:1003E000D0005A6A9407FCD440F4807098605A6A2E
:1003F0009007FCD55A6A1207FCD4BFF34F8F0B4607
:100400000B4C01F1200E641AE25804334FEA126CCF
:10041000100C110A734503F804CC03F8030C03F81D
:10042000021C03F8012CEFD1002010BD0120704701
:1004300010070C422DE9F0410D468CB0064601A88C
:100440001F469046FFF72CFF01A8C047284600F042
:10045000CEFB104C0246294601A8FFF773FF04A902
:1004600001A8B8472046314600F074FB129A204696
:1004700004A900F087FB2046074900F06BFB2046EB
:10048000139900F067FB2046044900F063FB0CB0B1
:10049000BDE8F08104000020000C00082C0C0008CE
:1004A000142500B5002383B001221749174800F036
:1004B0004BFB1749154800F04DFB00951C252024E7
:1004C0001448154B154A164901901648FFF7B2FF1C
:1004D0001549164B164A1748019100951049FFF728
:1004E000A9FF1548154BCDE90040154A0C491548A0
:1004F000FFF7A0FF1448114BCDE90040104A134903
:100500001348FFF797FFFEE7004400400400002077
:10051000180C0008480C0008F5020008D902000871
:10052000300C0008340C0008880C00081D0300087B
:10053000FD020008740C0008D80C0008D503000860
:1005400025030008C40C0008380D00081C0D000825
:10055000240D0008FEE700BF0F48104A08B590427E
:1005600007D2013A121A22F003020D49043200F0B8
:1005700029FB0C480C4A904207D2013A121A22F089
:1005800003020021043200F02AFB084B084A1A60DB
:10059000FFF786FFFEE700BF0000002004000020F8
:1005A000980D000804000020100400200000002026
:1005B000006CDC027F2823D811B310B4114C002842
:1005C00044F8301004EBC004626016DB01244109DA
:1005D00000F1604C1A01890000F01F0301F1604135
:1005E0000CF5644CD2B28CF8002004FA03F301F548
:1005F0006141002010BC0B607047002010BC7047A8
:100600000120704710000020024A936B0BB1D06BA1
:100610001847704710000020024A136C0BB1506C51
:100620001847704710000020024A936C0BB1D06C41
:100630001847704710000020024A136D0BB1506D2F
:100640001847704710000020024A936D0BB1D06D1F
:100650001847704710000020024A136E0BB1506E0D
:100660001847704710000020024A936E0BB1D06EFD
:100670001847704710000020024A136F0BB1506FEB
:100680001847704710000020024A936F0BB1D06FDB
:100690001847704710000020034AD2F8803013B189
:1006A000D2F884001847704710000020034AD2F89F
:1006B000883013B1D2F88C00184770471000002022
:1006C000034AD2F8903013B1D2F89400184770471B
:1006D00010000020034AD2F8983013B1D2F89C00E1
:1006E0001847704710000020034AD2F8A03013B119
:1006F000D2F8A4001847704710000020034AD2F82F
:10070000A83013B1D2F8AC00184770471000002091
:10071000034AD2F8B03013B1D2F8B400184770478A
:1007200010000020034AD2F8283213B1D2F82C026C
:1007300018477047100000204268D36913F00F017A
:1007400006D19B0607D58368506A23B1C0B218470B
:100750001162990600D47047536A704730B4002480
:100760004368AD4902468B421C6037D0AB498B428F
:100770000DD0AB498B4200F0F780AA498B4200F0C4
:100780002581A9498B4200F0B08001784BE0A74950
:10079000D1F89C0040F40030C1F89C00D1F88C00E6
:1007A00040F00100C1F88C001178481E012840F289
:1007B0008880002940F08A819D48046824F0C004A4
:1007C0000460046844F080040460046A24F4704403
:1007D0000462046A44F4E044046224E09349D1F8DA
:1007E000A40040F48040C1F8A400D1F88C0040F08F
:1007F0000100C1F88C001178481E012840D9002959
:1008000040F064818A48046824F440140460046859
:1008100044F400140460446A24F470644462446A3A
:1008200044F4E064446241F2883440F2A110814D06
:100830001D6292F801C0BCF1000F18BF20460024D1
:10084000D8605C609C60002977D0012914BF0D211D
:10085000092171481960834274D070498B4277D066
:1008600001F580618B4279D001F580618B4200F007
:10087000A78001F580618B4200F09C8030BC7047FE
:100880006B480229046824F440240460046844F49A
:1008900000240460446A24F0F0044462446A44F092
:1008A00070044462AED0634919625178002940F067
:1008B000C9800121002040F2A114DC6058609860DA
:1008C000C3E75B480229046824F03004046004682C
:1008D00044F020040460046A24F470640462046A2E
:1008E00044F4E0640462DED166E75048D0F89C101E
:1008F00041F48011C0F89C1011784C1E012C40F27C
:10090000BE80002940F00481484CD4F88C0040F0AF
:100910000800C4F88C004848046824F030040460DF
:10092000046844F020040460046A24F470640462DF
:10093000046A44F40064046275E7052136481960CE
:1009400083428AD130BC332000233C49FFF732BEBA
:10095000342030BC00233949FFF72CBE352030BC91
:1009600000233649FFF726BE3049D1F89C0040F4F9
:100970008020C1F89C00D1F88C0040F00200C1F842
:100980008C001178481E012864D9002940F0C080ED
:100990002B48046824F440040460046844F4000410
:1009A0000460446A24F470444462446A44F4E044B9
:1009B000446238E7372030BC00232049FFF7FABDF6
:1009C000362030BC00231D49FFF7F4BD1749D1F88C
:1009D0009C0040F40020C1F89C00D1F88C0040F04D
:1009E0000100C1F88C001178481E01287CD900292B
:1009F00040F08E800E48046824F00C040460046803
:100A000044F008040460046A24F0F0040462046AF8
:100A100044F08004046206E70038014000440040CE
:100A200000480040004C004000500040000C0244D0
:100A300000000242FF3B1200000C0242390700088E
:100A400000040242002141F28830D8605960996068
:100A50000921FEE638480229046824F440140460A1
:100A6000046844F400140460446A24F4706444622A
:100A7000446A44F4E06444627FF415AF88E7D0F838
:100A80008C40022944F00404C0F88C402B480468D0
:100A900024F040740460046844F000740460446A04
:100AA00024F470244462446A44F4002444623FF411
:100AB0002BAF234919625178002936D0012100203B
:100AC00041F28834DC6058609860BEE61C481862C9
:100AD000507800283FF4EEAE002041F288340D211A
:100AE000DC6058609860B4E616480229046824F077
:100AF00003040460046844F002040460046A24F0FF
:100B00000F040462046A44F008040462D1D171E75E
:100B10000B48186250780028D1D140F2A1140D2161
:100B2000DC6058609860196097E640F2A110D860C8
:100B3000596099608CE700BF00040242000802423D
:100B4000FF3B120000000242027043704160FFF759
:100B500005BE00BF8C46097899B110B40D244268D7
:100B60000A2909D0D3691B06FCD591621CF8011F24
:100B70000029F5D110BC7047D3691806FCD59462E2
:100B8000F0E77047D2B110B40A4443680C48013909
:100B900002F1FF3C11F8012F1209845CDA69120698
:100BA000FCD59C620A7802F00F02845CDA691206B6
:100BB000FCD58C459C62EDD110BC7047704700BFDE
:100BC0007C0D00080A44431E914200D1704710B5C5
:100BD00011F8014B914203F8014FF9D110BD0244C5
:100BE0000346934200D1704703F8011BF9E703461F
:100BF00013F8012B002AFBD1181A013870470000A6
:100C00000D0A4578706563746564204F757470755E
:100C100074203D20000000000D0A3D3D3D2048614C
:100C20007368205465737473203D3D3D0D0A0A00BE
:100C3000616263005348412D3120202822616263A4
:100C40002229203D200000006139393933653336CF
:100C50003437303638313661626133653235373199
:100C60003738353063323663396364306438396419
:100C7000000000005348412D323234282261626363
:100C80002229203D200000003233303937643232CF
:100C900033343035643832323836343261343737B1
:100CA0006264613235356233326161646263653436
:100CB0006264613062336637653336633964613745
:100CC000000000005348412D32353628226162630E
:100CD0002229203D200000006261373831366266EB
:100CE000386630316366656134313431343064657F
:100CF00035646165323232336230303336316133DC
:100D000039363137376139636234313066663631AE
:100D10006632303031356164000000006162636426
:100D2000000000005348412D3235362822616263AD
:100D3000642229203D20000038386434323636667B
:100D4000643465363333386431336238343566633E
:100D500066323839353739643230396338393738A3
:100D60003233623932313764613365313631393388
:100D700036663033313538390000000030313233D7
:100D800034353637383961626364656600000000C7
:080D9000F8B500BFF8B500BF83
:040D9800006CDC020D
:040000050800055991
:00000001FF
