:020000040800F2
:1000000000000220490400083104000833040008FD
:1000100031040008310400083104000835040008E8
:100020000000000000000000000000003104000893
:100030003104000800000000310400083104000809
:1000400000000000000000000000000000000000B0
:1000500000000000000000000000000000000000A0
:100060000000000000000000000000000000000090
:100070000000000000000000000000000000000080
:100080000000000000000000000000000000000070
:100090000000000000000000000000000000000060
:1000A0000000000000000000000000000000000050
:1000B0000000000000000000000000000000000040
:1000C0000000000000000000000000000000000030
:1000D0000000000000000000000000000000000020
:1000E0000000000000000000000000000000000010
:1000F0000000000000000000000000000000000000
:1001000000000000000000000000000000000000EF
:1001100000000000000000000000000000000000DF
:1001200000000000000000000000000000000000CF
:1001300000000000000000000000000000000000BF
:1001400000000000000000000000000000000000AF
:10015000000000000000000000000000000000009F
:10016000000000000000000000000000000000008F
:10017000000000000000000000000000000000007F
:1001800008B50268136843F004031360026813683B
:1001900023F4C42323F03803017919B101290AD0CB
:1001A00043F4C023136000214171816020220C3090
:1001B00000F090FB08BD43F48023F3E708B50B4A39
:1001C00002600171002242718260094BD3F88820DD
:1001D00042F00102C3F88820D3F88C2042F40032A8
:1001E000C3F88C20FFF7CCFF08BD00BF00040C4211
:1001F000000C024400297AD08C46002A79D02DE9DF
:10020000F04700AF4FEA920E02F00304032A4ED9E2
:10021000E84622F00306F31D23F00703ADEB030DC0
:100220006D46002113E01CF821A00CEB810999F820
:1002300001301B0443EA0A6399F802A043EA0A2347
:1002400099F8039043EA090345F8213001317145DB
:10025000E9D301680B6843F008030B60264B0221C9
:100260005966254B5B6E13F0020FFAD1224B40F218
:10027000FF11D9652149C3F890103F21C3F89410AC
:10028000C3F89860C3F89C501D49C3F8A010002122
:10029000C3F8CC1001215966174B1B6E13F4807FF5
:1002A000FAD001680B6823F008030B60C546BCB1A7
:1002B0000668736A13F0010FFAD000239E460BE024
:1002C00022F0030119441CF80110C3F10305ED00ED
:1002D000A9404EEA010E0133A342F1D3C6F804E06F
:1002E00083681A4482600020BD46BDE8F087012083
:1002F00070470120704700BF000002400A00020062
:1003000004040C4200293AD030B58C4602681368C8
:1003100023F008031360836803F00303DB00026823
:1003200043F48073936003685B6A13F0020FFAD0A2
:1003300003792BB1012B01D0082502E0072500E04D
:100340000525002315E09A000E4951F823100C0EE4
:100350000CF82340541CC1F3074E0CF804E002F1E2
:10036000020EC1F307240CF80E4003320CF8021001
:100370000133AB42E7DB00234371184630BD012057
:10038000704700BF10070C422DE9F04106460D46AC
:100390001746002411E02B5D1B09DFF8288018F8B0
:1003A0000310304600F07FFA2B5D03F00F0318F8BE
:1003B0000310304600F077FA0134BC42EBD3BDE8BD
:1003C000F08100BF6C09000810B594B0124C0023F6
:1003D00001221249204600F057FA1149204600F048
:1003E00066FA022109A8FFF7E9FE03220D4909A8D0
:1003F000FFF700FF01A909A8FFF784FF0A4920467B
:1004000000F055FA202201A92046FFF7BDFF074959
:10041000204600F04CFAFEE70400002000440040B3
:10042000E4080008FC080008000900081409000896
:10043000FEE7FEE7FEE70000014B024A1A60704744
:1004400000000020006CDC0208B50B4B0B4A03E0F7
:1004500052F8041B43F8041B09498B42F8D3094B9B
:1004600002E0002243F8042B074A9342F9D3FFF736
:10047000E3FFFFF7A9FFFEE700000020880900085E
:1004800004000020040000202400002000280ADBD3
:1004900000F01F024009800000F1604000F561405B
:1004A0000123934003607047002806DB00F16040A1
:1004B00000F564400901C9B20170704700EB5100BA
:1004C000B0FBF1F080B2704738B5044643680022B3
:1004D0001A604368A64A934238D0A64A934200F075
:1004E000A880A54A934200F0DE80A44A934200F01F
:1004F0001581A34A934250D1A24AD2F89C3043F4CA
:100500008013C2F89C300378013BDBB2012B40F230
:10051000578123780BB1022B3FD19A4AD2F88C3005
:1005200043F00803C2F88C30974B1A6822F030026F
:100530001A601A6842F020021A601A6A22F4706285
:100540001A621A6A42F400621A6226E08D4BD3F8EE
:10055000A42042F48042C3F8A420D3F88C2042F0B7
:100560000102C3F88C200378013BDBB2012B4ED98A
:1005700023780BB1022B10D1844B1A6822F440125D
:100580001A601A6842F400121A605A6A22F4706201
:100590005A625A6A42F4E0625A6263687C4A1A629A
:1005A0006378002B40F024814FF4E1317948FFF764
:1005B00085FF6368D8606268002353606268936057
:1005C0002378002B00F01781012B40F016810823BF
:1005D00043F00103626813606368654A934200F068
:1005E0000E81A2F57442934200F00B8102F5806205
:1005F000934200F0218102F58062934200F01E8157
:1006000002F58062934240F01D813725FAE05F4B8E
:100610001A6822F440221A601A6842F400221A6012
:100620005A6A22F0F0025A625A6A42F070025A6222
:100630009EE7544BD3F89C2042F40032C3F89C2030
:10064000D3F88C2042F00102C3F88C200378013BE0
:10065000DBB2012B15D923780BB1022B9DD14B4B6B
:100660001A6822F0C0021A601A6842F080021A600A
:100670001A6A22F470421A621A6A42F4E0421A625A
:100680008BE7424B1A6822F030021A601A6842F077
:1006900020021A601A6A22F470621A621A6A42F41C
:1006A000E0621A62D7E7374BD3F89C2042F48022ED
:1006B000C3F89C20D3F88C2042F00202C3F88C20AF
:1006C0000378013BDBB2012B16D9237813B1022B3F
:1006D0007FF463AF304B1A6822F440021A601A6844
:1006E00042F400021A605A6A22F470425A625A6A4C
:1006F00042F4E0425A6250E7274B1A6822F4401253
:100700001A601A6842F400121A605A6A22F470627F
:100710005A625A6A42F4E0625A62D6E7194BD3F839
:100720009C2042F40022C3F89C20D3F88C2042F095
:100730000102C3F88C200378013BDBB2012B2DD9D9
:10074000237813B1022B7FF428AF104B1A6822F0E4
:100750000C021A601A6842F008021A601A6A22F043
:10076000F0021A621A6A42F080021A6215E700BFAC
:10077000003801400044004000480040004C004068
:1007800000500040000C0244000C024200000242F3
:10079000FF3B1200006CDC02000402422E4B1A6880
:1007A00022F003021A601A6842F002021A601A6A02
:1007B00022F00F021A621A6A42F008021A62BFE7B8
:1007C000D2F88C3043F00403C2F88C30234B1A6803
:1007D00022F040721A601A6842F000721A605A6A77
:1007E00022F470225A625A6A42F400225A6290E657
:1007F0004FF41651DAE60423EAE60C23E8E6332543
:1008000000E0342500212846FFF74EFE2846FFF77A
:100810003DFE6368124A934212D0124A934212D0AC
:10082000114A934212D0114A934212D0104A934275
:1008300008D1104B1C6005E03525E3E73625E1E7DC
:100840000D4B1C6038BD0D4B1C60FBE70C4B1C6056
:10085000F8E70C4B1C60F5E700000242000802427A
:10086000003801400044004000480040004C004077
:100870000050004014000020180000201C00002040
:10088000200000201000002008B502704370416075
:10089000FFF71AFE08BD4368DA6912F0800FFAD03C
:1008A000C9B29962704708B5FFF7F5FF08BD70B58A
:1008B00006460D4603E021463046FFF7ECFF2C7854
:1008C0003CB101350A2CF6D10D213046FFF7E3FF8C
:1008D000F1E770BD02440346934200D1704703F82C
:1008E000011BF9E70D0A3D3D3D2048617368205426
:1008F00065737473203D3D3D0D0A00006162630025
:100900005348412D32353628226162632229203D29
:10091000200000000D0A45787065637465643A2014
:10092000202020202020206261373831366266384E
:100930006630316366656134313431343064653535
:1009400064616532656337336233333863306161C4
:100950003834336338613363623334383065346636
:10096000306439633837320D0A00000030313233D9
:1009700034353637383961626364656600000000DB
:08098000F8B500BFF8B500BF97
:04098800006CDC0221
:0400000508000449A2
:00000001FF
