:020000040800F2
:1000000000000220A90300089D030008A1030008C6
:100010009D0300089D0300089D030008A503000838
:100020000000000000000000000000009D03000828
:100030009D030008000000009D0300089D030008C8
:1000400000000000000000000000000000000000B0
:1000500000000000000000000000000000000000A0
:100060000000000000000000000000000000000090
:100070000000000000000000000000000000000080
:100080000000000000000000000000000000000070
:100090000000000000000000000000000000000060
:1000A0000000000000000000000000000000000050
:1000B0000000000000000000000000000000000040
:1000C0000000000000000000000000000000000030
:1000D0000000000000000000000000000000000020
:1000E0000000000000000000000000000000000010
:1000F0000000000000000000000000000000000000
:1001000000000000000000000000000000000000EF
:1001100000000000000000000000000000000000DF
:1001200000000000000000000000000000000000CF
:1001300000000000000000000000000000000000BF
:1001400000000000000000000000000000000000AF
:10015000000000000000000000000000000000009F
:10016000000000000000000000000000000000008F
:10017000000000000000000000000000000000007F
:100180000022074910B4D1F88C30064C43F40033F8
:10019000C1F88C300460027110BC8260704700BFEF
:1001A000000C024400040C420146064A03681A602F
:1001B0005A6AD207FCD5586A10F00200FBD1986049
:1001C0008860704704000600002943D02DE9F04103
:1001D0001446002A3BD00546900802F0030619D0C9
:1001E0008C462A6801EB8000536ADF07FCD59CF837
:1001F00001309CF800809CF803701B049CF802E01E
:1002000043EA08633B430CF1040C43EA0E236045C8
:100210005360E9D1AEB12A68536ADB07FCD5F6001A
:1002200096600027182624F003000844214410F8A3
:10023000013BB340814247EA0307A6F10806F6D125
:100240005760AB6800202344AB60BDE8F08101201B
:10025000BDE8F0810120704751B310B58268036892
:1002600002F00302D0005A6A9407FCD440F4807074
:1002700098605A6A9007FCD55A6A1207FCD4BFF3FB
:100280004F8F0B460B4C01F1200E641AE2580433D9
:100290004FEA126C100C110A734503F804CC03F8F2
:1002A000030C03F8021C03F8012CEFD1002010BD51
:1002B0000120704710070C422DE9F04789468CB0A9
:1002C000824601A89046FFF75BFF01A8FFF76CFF8D
:1002D000484600F0FEFA194D0246494601A8FFF7CC
:1002E00073FF04A901A8FFF7B7FF51462846144E33
:1002F0000DF10F040DF12F0700F0BEFA14F8013FC5
:1003000028461B09F15C00F0AFFA2378284603F079
:100310000F03F15C00F0A8FABC42EFD1074809498D
:1003200000F0AAFA4146054800F0A6FA064903483B
:1003300000F0A2FA0CB0BDE8F08700BF0400002076
:10034000D8090008E4080008FC08000808B50122E4
:1003500000230949094800F081FA0949074800F0DB
:100360008BFA084A08490948FFF7A6FF084A0949D5
:100370000948FFF7A1FFFEE7004400400400002009
:10038000000900081C090008600900086409000849
:1003900078090008BC090008C4090008FEE700BF8E
:1003A000FEE700BFFEE700BF0F48104A08B59042C5
:1003B00007D2013A121A22F003020D49043200F06A
:1003C00073FA0C480C4A904207D2013A121A22F0F2
:1003D00003020021043200F074FA084B084A1A6044
:1003E000FFF7B4FFFEE700BF00000020040000207C
:1003F000F409000804000020240000200000002070
:10040000006CDC0200214368AA4A30B493421960B0
:1004100037D0A94A93420DD0A84A934200F01781E1
:10042000A74A934200F06C81A64A934200F0B28042
:1004300002784BE0A44AD2F89C1041F40031C2F893
:100440009C10D2F88C1041F00101C2F88C10027897
:10045000511E012940F28A80002A40F0BD819B494B
:100460000C6824F0C0040C600C6844F080040C603C
:100470000C6A24F470440C620C6A44F4E0440C628C
:1004800024E0914AD2F8A41041F48041C2F8A410AB
:10049000D2F88C1041F00101C2F88C100278511E84
:1004A000012942D9002A40F0978188490C6824F438
:1004B00040140C600C6844F400140C604C6A24F482
:1004C00070644C624C6A44F4E0644C6241F28834DB
:1004D00040F2A1117E4D1D6290F801C0BCF1000FE9
:1004E00018BF21460024D9605C609C60002A79D046
:1004F000012A14BF0D2209226E491A608B4276D060
:100500006D4A934200F0978002F58062934200F0BA
:100510009A8002F58062934200F0C78002F5806203
:10052000934200F0BE8030BC70476849022A0C68D4
:1005300024F440240C600C6844F400240C604C6AE1
:1005400024F0F0044C624C6A44F070044C62ACD06D
:100550005F4A1A624278002A40F0FA8001220021A4
:1005600040F2A114DC6059609960C1E75749022A42
:100570000C6824F030040C600C6844F020040C601B
:100580000C6A24F470640C620C6A44F4E0640C623B
:10059000DED164E74C49D1F89C2042F48012C1F8C6
:1005A0009C200278541E012C40F2EF80002A40F07B
:1005B0003581454CD4F88C1041F00801C4F88C10FA
:1005C00044490C6824F030040C600C6844F02004AA
:1005D0000C600C6A24F470640C620C6A44F40064CD
:1005E0000C6273E7052233491A608B4288D14FF4BD
:1005F0000021394C4FF0000C4FF0E02384F800C08C
:100600002C4AC3F804114368934210D02A4A9342FB
:1006100015D02A4A934240D0294A934200F095804F
:10062000284A93427FF47FAF2C4B18607BE72C4B1A
:1006300030BC186070474FF480112A4CDAE72A4B1F
:1006400030BC186070474FF40011284CD2E71E4AA6
:10065000D2F89C1041F48021C2F89C10D2F88C1082
:1006600041F00201C2F88C100278511E012977D99D
:10067000002A40F0D3801E490C6824F440040C602A
:100680000C6844F400040C604C6A24F470444C621E
:100690004C6A44F4E0444C6218E7164B30BC1860D6
:1006A00070474FF40001144CA4E74FF48001134C41
:1006B000A0E700BF0038014000440040004800406F
:1006C000004C004000500040000C02440000024278
:1006D000FF3B1200000C024233E400E01400002053
:1006E0001800002034E400E01C00002035E400E0A5
:1006F000000402422000002037E400E036E400E07D
:10070000504AD2F89C1041F40021C2F89C10D2F853
:100710008C1041F00101C2F88C100278511E0129A1
:1007200068D9002A7AD148490C6824F00C040C607E
:100730000C6844F008040C600C6A24F0F0040C62AD
:100740000C6A44F080040C62C0E6404B1860EAE694
:10075000002241F28831D9605A609A600922CBE6C2
:100760003B49022A0C6824F440140C600C6844F4E1
:1007700000140C604C6A24F470644C624C6A44F4BB
:10078000E0644C627FF4E4AE75E7D1F88C40022A55
:1007900044F00404C1F88C402E490C6824F04074E5
:1007A0000C600C6844F000740C604C6A24F47024F3
:1007B0004C624C6A44F400244C623FF4FAAE264A80
:1007C0001A624278002A36D00122002141F2883490
:1007D000DC60596099608BE61F49196241780029F5
:1007E0003FF4BDAE002141F288340D22DC60596037
:1007F000996081E61449022A0C6824F003040C6015
:100800000C6844F002040C600C6A24F00F040C62C3
:100810000C6A44F008040C62D1D184E70E491962D5
:1008200041780029D1D140F2A1140D22DC60596039
:1008300099601A6064E640F2A111D9605A609A602A
:100840008CE700BF000C02440000024210000020B0
:100850000004024200080242FF3B12000270437093
:100860004160FFF7CFBD00BF4268D3691B06FCD5CE
:10087000C9B29162704700BF8C46097899B110B433
:100880000D2442680A2909D0D3691B06FCD5916260
:100890001CF8011F0029F5D110BC7047D369180658
:1008A000FCD59462F0E770470A44431E914200D1A0
:1008B000704710B511F8014B914203F8014FF9D17F
:1008C00010BD02440346934200D1704703F8011B58
:1008D000F9E7034613F8012B002AFBD1181A013857
:1008E000704700000D0A4578706563746564204F99
:1008F0007574707574203D20000000000D0A0A0018
:100900000D0A3D3D3D205348412D3235362054657A
:10091000737473203D3D3D0D0A0A00006261373853
:100920003136626638663031636665613431343140
:10093000343064653564616532323233623030336D
:1009400036316133393631373761396362343130AA
:100950006666363166323030313561640000000041
:10096000616263005348412D32353628226162634B
:10097000222920203D200000383864343236366683
:100980006434653633333864313362383435666302
:100990006632383935373964323039633839373867
:1009A000323362393231376461336531363139334C
:1009B00036663033313538390000000061626364D7
:1009C000000000005348412D323536282261626311
:1009D000642229203D20000030313233343536374F
:1009E000383961626364656600000000F8B500BFD5
:0409F000F8B500BF97
:0409F400006CDC02B5
:04000005080003A943
:00000001FF
