:020000040800F2
:1000000000000220C50B0008C10B0008C10B00084E
:10001000C10B0008C10B0008C10B00080000000064
:10002000000000000000000000000000C10B0008FC
:10003000C10B000800000000C10B0008C10B000844
:1000400000000000000000000000000000000000B0
:10005000000000000000000000000000050400088F
:1000600015040008250400083504000845040008AC
:10007000550400086504000875040008850400089C
:1000800095040008A9040008BD040008D104000874
:10009000E5040008F90400080D0500080000000050
:1000A0000000000000000000000000000000000050
:1000B0000000000000000000000000000000000040
:1000C0000000000000000000000000000000000030
:1000D0000000000000000000000000000000000020
:1000E0000000000000000000000000000000000010
:1000F0000000000000000000000000000000000000
:1001000000000000000000000000000000000000EF
:1001100000000000000000000000000000000000DF
:1001200000000000000000000000000000000000CF
:1001300000000000000000000000000000000000BF
:1001400000000000000000000000000000000000AF
:10015000000000000000000000000000000000009F
:10016000000000000000000000000000000000008F
:10017000000000000000000000000000000000007F
:10018000000000000000000000000000000000006F
:10019000000000000000000000000000000000005F
:1001A000000000000000000000000000000000004F
:1001B000000000000000000000000000000000003F
:1001C000000000000000000000000000000000002F
:1001D000000000000000000000000000000000001F
:1001E000000000000000000000000000000000000F
:1001F00000000000000000000000000000000000FF
:1002000000000000000000000000000000000000EE
:1002100000000000000000000000000000000000DE
:1002200000000000000000000000000000000000CE
:1002300000000000000000000000000000000000BE
:1002400000210B4B10B4D3F88C200A4C42F400323E
:10025000C3F88C205A6E42F400325A665A6E22F469
:1002600000325A660460017110BC8160704700BFA3
:10027000000C024400040C420146064A03681A605E
:100280005A6AD207FCD5586A10F00200FBD1986078
:100290008860704704000600002956D0002A54D018
:1002A0002DE9F0439508064602F0030043D08C4642
:1002B0004FF0000E346815E09CF801309CF8009077
:1002C0009CF803801B049CF8027043EA096343EA2C
:1002D00008030EF1010E43EA0723754563600CF134
:1002E000040C09D01EF00F0FE6D1636ADF07E3D4D8
:1002F000636ADF07F9D5DFE7B8B12D071ED0002507
:10030000AC46C300A36022F003031944C5EB457358
:1003100011F8017BDB001833013507FA03F3A8421B
:100320004CEA030CF2D8C4F804C0B36800201A44A5
:10033000B260BDE8F0830028F7D03468636ADB0759
:10034000DDD4636ADB07F9D5D9E70120704700BF28
:1003500051B310B58268036802F00302D0005A6AF4
:100360009407FCD440F4807098605A6A9007FCD5DA
:100370005A6A1207FCD4BFF34F8F0B460B4C01F1A6
:10038000200E641AE25804334FEA126C100C110A62
:10039000734503F804CC03F8030C03F8021C03F8BC
:1003A000012CEFD1002010BD0120704710070C4236
:1003B0007F2823D811B310B4114C002844F8301012
:1003C00004EBC004626016DB0124410900F1604CBB
:1003D0001A01890000F01F0301F160410CF5644C23
:1003E000D2B28CF8002004FA03F301F56141002039
:1003F00010BC0B607047002010BC70470120704794
:1004000068000020024A936B0BB1D06B184770470D
:1004100068000020024A136C0BB1506C18477047FB
:1004200068000020024A936C0BB1D06C18477047EB
:1004300068000020024A136D0BB1506D18477047D9
:1004400068000020024A936D0BB1D06D18477047C9
:1004500068000020024A136E0BB1506E18477047B7
:1004600068000020024A936E0BB1D06E18477047A7
:1004700068000020024A136F0BB1506F1847704795
:1004800068000020024A936F0BB1D06F1847704785
:1004900068000020034AD2F8803013B1D2F88400FB
:1004A0001847704768000020034AD2F8883013B11B
:1004B000D2F88C001847704768000020034AD2F831
:1004C000903013B1D2F894001847704768000020AC
:1004D000034AD2F8983013B1D2F89C0018477047FD
:1004E00068000020034AD2F8A03013B1D2F8A4006B
:1004F0001847704768000020034AD2F8A83013B1AB
:10050000D2F8AC001847704768000020034AD2F8C0
:10051000B03013B1D2F8B40018477047680000201B
:100520004268D36913F00F0106D19B0607D5836893
:10053000506A23B1C0B218471162990600D47047BF
:10054000536A704730B400244368AD4902468B4279
:100550001C6037D0AB498B420DD0AB498B4200F0C9
:10056000F780AA498B4200F02581A9498B4200F00F
:10057000B08001784BE0A749D1F89C0040F40030EE
:10058000C1F89C00D1F88C0040F00100C1F88C004B
:100590001178481E012840F28880002940F08A81A5
:1005A0009D48046824F0C0040460046844F080049A
:1005B0000460046A24F470440462046A44F4E0446D
:1005C000046224E09349D1F8A40040F48040C1F8CB
:1005D000A400D1F88C0040F00100C1F88C00117823
:1005E000481E012840D9002940F064818A480468E7
:1005F00024F440140460046844F400140460446A61
:1006000024F470644462446A44F4E064446241F255
:10061000883440F2A110814D1D6292F801C0BCF1F6
:10062000000F18BF20460024D8605C609C60002941
:1006300077D0012914BF0D21092171481960834227
:1006400074D070498B4277D001F580618B4279D0AC
:1006500001F580618B4200F0A78001F580618B423B
:1006600000F09C8030BC70476B480229046824F479
:1006700040240460046844F400240460446A24F0C4
:10068000F0044462446A44F070044462AED06349AA
:1006900019625178002940F0C9800121002040F200
:1006A000A114DC6058609860C3E75B4802290468C5
:1006B00024F030040460046844F020040460046AF8
:1006C00024F470640462046A44F4E0640462DED1D9
:1006D00066E75048D0F89C1041F48011C0F89C1097
:1006E00011784C1E012C40F2BE80002940F004819C
:1006F000484CD4F88C0040F00800C4F88C004848FE
:10070000046824F030040460046844F020040460A9
:10071000046A24F470640462046A44F400640462A9
:1007200075E705213648196083428AD130BC3320F1
:1007300000233C49FFF73CBE342030BC002339493C
:10074000FFF736BE352030BC00233649FFF730BEF8
:100750003049D1F89C0040F48020C1F89C00D1F8C9
:100760008C0040F00200C1F88C001178481E01286E
:1007700064D9002940F0C0802B48046824F4400468
:100780000460046844F400040460446A24F470447F
:100790004462446A44F4E044446238E7372030BCA1
:1007A00000232049FFF704BE362030BC00231D493A
:1007B000FFF7FEBD1749D1F89C0040F40020C1F8B6
:1007C0009C00D1F88C0040F00100C1F88C00117839
:1007D000481E01287CD9002940F08E800E4804680C
:1007E00024F00C040460046844F008040460046A03
:1007F00024F0F0040462046A44F08004046206E712
:10080000003801400044004000480040004C0040D7
:1008100000500040000C024400000242FF3B120066
:10082000000C02422105000800040242002141F2AE
:100830008830D860596099600921FEE6384802295D
:10084000046824F440140460046844F40014046050
:10085000446A24F470644462446A44F4E064446288
:100860007FF415AF88E7D0F88C40022944F00404E7
:10087000C0F88C402B48046824F04074046004687D
:1008800044F000740460446A24F470244462446AAE
:1008900044F4002444623FF42BAF23491962517899
:1008A000002936D00121002041F28834DC605860F4
:1008B0009860BEE61C481862507800283FF4EEAEFF
:1008C000002041F288340D21DC6058609860B4E665
:1008D00016480229046824F003040460046844F004
:1008E00002040460046A24F00F040462046A44F001
:1008F00008040462D1D171E70B48186250780028CF
:10090000D1D140F2A1140D21DC60586098601960CB
:1009100097E640F2A110D860596099608CE700BF5B
:100920000004024200080242FF3B120000000242A3
:10093000027043704160FFF705BE00BF8C46097826
:1009400099B110B40D2442680A2909D0D3691B0655
:10095000FCD591621CF8011F0029F5D110BC70472D
:10096000D3691806FCD59462F0E7704730B5156876
:10097000D2F804E0D2F808C0D4680560C0F804E0FA
:10098000C0F808C0C460D2F814E0D2F818C0D46926
:100990001569C0F814E00561C0F818C0C4611C688E
:1009A000D3F804E0D3F808C0DA680462C0F824E0A1
:1009B000C0F828C0C2621C69D3F814E0D3F818C08C
:1009C000DA690463C0F834E0C0F838C0C263016477
:1009D00030BD00BF2DE9F04F05460E461746B1B0B9
:1009E000E9461C46006CFFF747FC3A463146286C46
:1009F000FFF752FC286C6946FFF7AAFCB9E80F0024
:100A0000013D0DF15F0E77462E460DF1200BDC46C1
:100A1000ABE80F0099E80F008BE80F0020686168D1
:100A2000A268E3680DF1400AD046AAE80F002069E9
:100A30006169A269E369AAE80F001CF8012B16F8A6
:100A4000013FC44582EA030207F8012FF5D10DF1F9
:100A50007F063146334618AF1CF8012B15F8010FFD
:100A6000BC4582EA000203F8012FF5D10DF19F0386
:100A70001EF8012F11F8010FB64582EA000203F8B3
:100A8000012FF5D12022214628A800F0C9F8B0FA9C
:100A900080F0400931B0BDE8F08F00BF2DE9F04F84
:100AA00000274FF0010B4FF0020AC3B000230122D0
:100AB000394903A8FFF73CFFDFF8E090384903A865
:100AC000FFF73CFF0DF1240806A8FFF7B9FBB9E8D2
:100AD0000F00A8E80F0099E80F00DFF8C8E00DF15B
:100AE000440C88E80F00BEE80F00ACE80F009EE859
:100AF0000F008CE80F0011AB06A909AA31A8CDF8A8
:100B000064B0CDE91A77CDE91C77CDE91E77CDE940
:100B10002277CDE92477CDE92677CDF884A02097F8
:100B20002897FFF723FF06A8FFF7A6FB12221E490E
:100B300006A8FFF7B1FB29A906A8FFF709FC1B4986
:100B400003A81B4E0DF1A3040DF1C305FFF7F6FE3C
:100B500014F8013F3246032102A800F087F802A9E9
:100B600003A8FFF7EBFEAC42F2D1124903A8FFF74E
:100B7000E5FE21AB009312220B4931A819ABFFF718
:100B800029FF20B10C4903A8FFF7D8FEFEE70B4967
:100B900003A8FFF7D3FEF9E7004400401816000849
:100BA000901500083C160008A8150008BC150008A0
:100BB000C8150008D0150008D4150008E81500086D
:100BC000FEE700BF0F48104A08B5904207D2013A2D
:100BD000121A22F003020D49043200F031F80C48D9
:100BE0000C4A904207D2013A121A22F00302002165
:100BF000043200F032F8084B084A1A60FFF74EFF43
:100C0000FEE700BF000000206800002098160008E2
:100C1000680000207C04002000000020006CDC0242
:100C20000139024410B5904201D1002005E003785B
:100C300011F8014FA34201D0181B10BD0130F2E79B
:100C40000A44431E914200D1704710B511F8014B80
:100C5000914203F8014FF9D110BD0244034693427B
:100C600000D1704703F8011BF9E700000CB4184BE2
:100C700030B50C1E9DB01D6808DA8B234FF0FF3095
:100C80002B601DB0BDE8304002B070474FF40273D6
:100C90000290069002A9ADF8143014BF04F1FF339E
:100CA0002346209A2846049307934FF6FF73ADF826
:100CB000163021AB019300F069F8431CBCBF8B23B5
:100CC0002B60002CDDD0029B00221A70D9E700BFF8
:100CD000040000202DE9F0478E6882460C469046BD
:100CE0009E421F4638D88A8912F4906F32D0256808
:100CF00001330969A5EB0109656905EB45054B441D
:100D000005EBD5756D109D4238BF1D46530531D595
:100D1000294600F063FB064650B90C234FF0FF3024
:100D2000CAF80030A38943F04003A381BDE8F087EF
:100D30004A462169FFF784FFA38923F4906343F0B7
:100D40008003A38126614E446561A5EB09052660F9
:100D50003E46A560BE4200D93E4632464146206826
:100D600000F0B8FAA36800209B1BA36023683344FB
:100D70002360DBE72A4600F0A5FB06460028E1D108
:100D80002169504600F0C0FAC7E700002DE9F04F96
:100D900098468B899DB007461B060D4614460ED516
:100DA0000B6963B9402100F019FB2860286120B964
:100DB0000C233B604FF0FF30D1E040236B610023F8
:100DC000CDF80C804FF00109DFF8AC8109932023A6
:100DD0008DF8293030238DF82A3023469A4613F8AF
:100DE000012B0AB1252AF9D1BAEB040B0BD05B46D3
:100DF000224629463846FFF76DFF013000F0AA80F1
:100E0000099A5A4409929AF80030002B00F0A28007
:100E100000234FF0FF320AF1010A049307938DF883
:100E200053301A93CDE9052354460522524814F84D
:100E3000011B00F041FA049AD8B9D00644BF202320
:100E40008DF85330110744BF2B238DF853309AF897
:100E500000302A2B15D0079A544600204FF00A0C78
:100E6000214611F8013B303B092B4ED9B0B1079216
:100E700014E0A0EB0803A24609FA03F3134304931A
:100E8000D2E7039B191D1B68002B0391BBBF5B427C
:100E900042F0020207930793B8BF049223782E2BE7
:100EA0000CD163782A2B35D1039B02341A1D1B68A1
:100EB000002B0392B8BF4FF0FF330593DFF8BCA0BF
:100EC00003222178504600F0F7F940B14023A0EB0F
:100ED0000A00013403FA00F0049B0343049314F85E
:100EE000011B062226488DF8281000F0E5F900289D
:100EF00038D0244B1BBB039B073323F00703083375
:100F00000393099B3344099367E70CFB02320C46B9
:100F10000120A5E7002301344FF00A0C1946059380
:100F2000204610F8012B303A092A03D9002BC5D0EE
:100F30000591C3E70CFB012104460123F0E703AB55
:100F40002A4604A9384600930F4B00E000BF421C1C
:100F50000646D6D1AB895B063FF52CAF09981DB08C
:100F6000BDE8F08F03AB2A4604A938460093064B30
:100F700000F07CF8EBE700BF5D1600086316000880
:100F80006716000800000000D50C00082DE9F047A6
:100F9000164699468A6807460B690C46DDF820809C
:100FA0009342B8BF1346336091F843200AB101332E
:100FB00033602368990642BF336802333360256883
:100FC00015F0060506D104F1190AE36832689B1A88
:100FD000AB4229DC94F84320131E226818BF01237A
:100FE00092062ED404F1430249463846C0470130E8
:100FF00021D023681A3454F80E5C03F006033268DB
:101000000026042B54F8123C08BFAD1A54F80A2CE1
:1010100014BF002525EAE5759342C4BF9B1AED185D
:10102000B5421AD1002008E001235246494638460D
:10103000C047013003D14FF0FF30BDE8F0870135E4
:10104000C3E7E1185A1C30200233224481F84300E0
:1010500094F8451082F84310C4E70123224649461C
:101060003846C0470130E6D00136D9E72DE9FF47C1
:101070000F7E914680460C46782F9A460C9D01F1D2
:10108000430207D8622F0AD8002F00F0D880582FCB
:1010900000F0A38004F1420584F842703AE0A7F121
:1010A0006303152BF6D801A151F823F005110008B0
:1010B00019110008951000089510000895100008F7
:1010C00095100008191100089510000895100008E7
:1010D0009510000895100008251200084911000815
:1010E0000712000895100008951000084712000824
:1010F0009510000849110008951000089510000887
:101100000F1200082B681A1D1B682A6004F14205A3
:1011100084F842300123A3E020682968060601F123
:1011200004030AD50E682B60002E03DA2D237642C5
:1011300084F843305E480A2319E00E6810F0400F2F
:101140002B6018BF36B2EFE72B682068191D2960A5
:10115000010601D51E6802E04606FBD51E886F2FEA
:1011600053480CBF08230A23002184F84310656804
:10117000002DA560A2BF216821F0040121600EB9F5
:10118000002D4DD01546B6FBF3F103FB1167C75D8B
:1011900005F8017D37460E46BB42F4D9082B0BD12A
:1011A0002368DE0708D5236961689942DEBF3023D2
:1011B00005F8013C05F1FF35521B22614B4603AA9D
:1011C00021464046CDF800A0FFF7E0FE01304CD1AB
:1011D0004FF0FF3004B0BDE8F087354881F8457026
:1011E0002968236851F8046B29601D0614D5DF07B0
:1011F00044BF43F0200323601EB9236823F020037B
:1012000023601023B0E7236843F020032360782392
:10121000284884F84530E3E7590648BFB6B2E6E708
:101220001546BBE72B682668181D616928603506DE
:101230001B6801D5196002E07006FBD519800023F8
:1012400015462361BAE72B6800211A1D2A601D6824
:101250006268284600F030F808B1401B606063689F
:101260002361002384F84330A8E723692A464946CE
:101270004046D0470130ABD023689B0713D4E068C9
:10128000039B9842B8BF1846A4E70123324649465B
:101290004046D04701309BD00135E36803995B1A83
:1012A000AB42F2DCEBE7002504F11906F5E700BFDD
:1012B0006E1600087F160008C9B20346024410B536
:1012C0009342184601D1002003E0047801338C4298
:1012D000F6D110BD884210B501EB020402D9844258
:1012E000234607D8431EA14208D011F8012B03F86A
:1012F000012FF8E7024401468A4200D110BD13F8DD
:10130000014D02F8014DF7E738B50546002941D0F7
:1013100051F8043C0C1F002BB8BFE41800F012F980
:101320001D4A136833B9636014602846BDE838402D
:1013300000F00EB9A34208D9206821188B4201BFE2
:1013400019685B6809182160EDE71A465B680BB104
:10135000A342FAD911685018A0420BD12068014469
:10136000501811608342E0D118685B6801445360F3
:101370001160DAE702D90C232B60D6E72068211828
:101380008B4202BF19685B680918636008BF21605F
:101390005460CAE738BD00BF6804002070B50E4E27
:1013A0000C460546316811B900F0BCF830602146A2
:1013B000284600F0B7F8431C0AD0C41C24F00304EC
:1013C000A04207D0211A284600F0ACF8013001D124
:1013D0004FF0FF34204670BD6C0400202DE9F04131
:1013E000CD1C074625F0030508350C2D38BF0C250C
:1013F000002D01DBA94205D90C2300263B603046B5
:10140000BDE8F0812E4E00F09DF833681C4634BBD9
:1014100029463846FFF7C2FF431C04464DD13468C5
:101420002646002E40D123683146384604EB030897
:1014300000F078F880453AD12168033538466D1AB6
:1014400025F0030508350C2D38BF0C252946FFF77C
:10145000A5FF01302BD023682B4423600EE02268C7
:10146000521B1ED40B2A16D96119A342256018BF3E
:101470005960636808BF316062514B6004F10B062C
:10148000384600F065F8231D26F00706F21AB6D09C
:101490009B1BA350B3E76268A3420CBF32605A6043
:1014A000ECE723466468B2E734467668B9E70C2374
:1014B00038463B6000F04CF8A1E72560DEE700BF4E
:1014C000680400202DE9F041804614460E4621B9FB
:1014D0001146BDE8F041FFF781BF2AB92546FFF765
:1014E00013FF2846BDE8F08100F038F88442074633
:1014F00002D8B4EB500F12D821464046FFF76EFFDA
:1015000005460028EDD0BC422246314628BF3A4667
:10151000FFF796FB31464046FFF7F6FEE1E735461A
:10152000DFE7000038B50023054D044608462B6070
:1015300000F01EF8431C02D12B6803B1236038BDB4
:1015400070040020014800F011B800BF74040020AE
:10155000014800F00CB800BF7404002051F8043CAE
:10156000181F002BBCBF0B58C0187047704770473E
:10157000054A0346106810B10344136070470348DE
:1015800003441360704700BF780400207C040020EF
:101590000D0A3D3D3D20454344534120546573743D
:1015A000203D3D3D0D0A0A0068656C6C6F20736537
:1015B0006375726520776F726C6400005348412D2B
:1015C0003235363A20000000253032580000000045
:1015D0000D0A00005369676E61747572652056418B
:1015E0004C49440D0A0000005369676E61747572BE
:1015F0006520494E56414C49442028657870656302
:1016000074656420776974682064756D6D792072E3
:101610002F73290D0A0000006B17D1F2E12C42470D
:10162000F8BCE6E563A440F277037D812DEB33A09F
:10163000F4A13945D898C296000000004FE342E279
:10164000FE1A7F9B8EE7EB4A7C0F9E162BCE3357FC
:101650006B315ECECBB6406837BF51F500232D30DD
:101660002B2000686C4C00656667454647003031AA
:1016700032333435363738394142434445460030F9
:101680003132333435363738396162636465660028
:08169000F8B500BFF8B500BF7A
:10169800006CDC02080000200000000000000000D0
:1016A8000000000000000000000000000000000032
:1016B8000000000000000000000000000000000022
:1016C8000000000000000000000000000000000012
:1016D8000000000000000000000000000000000002
:1016E80000000000000000000000000000000000F2
:0816F8000000000000000000EA
:0400000508000BC51F
:00000001FF
